{
  "_format": "hh-sol-artifact-1",
  "contractName": "Alchemist",
  "sourceName": "contracts/Alchemist.sol",
  "abi": [
    {
      "anonymous": false,
      "inputs": [
        {
          "indexed": true,
          "internalType": "address",
          "name": "source",
          "type": "address"
        },
        {
          "indexed": false,
          "internalType": "uint256",
          "name": "mergedAmount",
          "type": "uint256"
        },
        {
          "indexed": false,
          "internalType": "uint256",
          "name": "price",
          "type": "uint256"
        }
      ],
      "name": "Merge",
      "type": "event"
    },
    {
      "anonymous": false,
      "inputs": [
        {
          "indexed": true,
          "internalType": "address",
          "name": "source",
          "type": "address"
        },
        {
          "indexed": false,
          "internalType": "uint256",
          "name": "splitAmount",
          "type": "uint256"
        },
        {
          "indexed": false,
          "internalType": "uint256",
          "name": "poolId",
          "type": "uint256"
        }
      ],
      "name": "Split",
      "type": "event"
    },
    {
      "inputs": [],
      "name": "academy",
      "outputs": [
        {
          "internalType": "address",
          "name": "",
          "type": "address"
        }
      ],
      "stateMutability": "view",
      "type": "function"
    },
    {
      "inputs": [],
      "name": "chyme",
      "outputs": [
        {
          "internalType": "address",
          "name": "",
          "type": "address"
        }
      ],
      "stateMutability": "view",
      "type": "function"
    },
    {
      "inputs": [],
      "name": "elixirImpl",
      "outputs": [
        {
          "internalType": "address",
          "name": "",
          "type": "address"
        }
      ],
      "stateMutability": "view",
      "type": "function"
    },
    {
      "inputs": [
        {
          "internalType": "address",
          "name": "_chyme",
          "type": "address"
        },
        {
          "internalType": "address",
          "name": "_steadyImpl",
          "type": "address"
        },
        {
          "internalType": "address",
          "name": "_elixirImpl",
          "type": "address"
        },
        {
          "internalType": "uint256",
          "name": "_forgePrice",
          "type": "uint256"
        },
        {
          "internalType": "uint256",
          "name": "_alchemistId",
          "type": "uint256"
        }
      ],
      "name": "initialize",
      "outputs": [],
      "stateMutability": "nonpayable",
      "type": "function"
    },
    {
      "inputs": [
        {
          "internalType": "uint256",
          "name": "ChymeAmountToMerge",
          "type": "uint256"
        }
      ],
      "name": "merge",
      "outputs": [
        {
          "internalType": "bool",
          "name": "",
          "type": "bool"
        }
      ],
      "stateMutability": "nonpayable",
      "type": "function"
    },
    {
      "inputs": [
        {
          "internalType": "uint256",
          "name": "amount",
          "type": "uint256"
        }
      ],
      "name": "split",
      "outputs": [
        {
          "internalType": "bool",
          "name": "",
          "type": "bool"
        }
      ],
      "stateMutability": "nonpayable",
      "type": "function"
    },
    {
      "inputs": [],
      "name": "steadyImpl",
      "outputs": [
        {
          "internalType": "address",
          "name": "",
          "type": "address"
        }
      ],
      "stateMutability": "view",
      "type": "function"
    }
  ],
  "bytecode": "0x608060405234801561001057600080fd5b506001600081905550611b37806100286000396000f3fe608060405234801561001057600080fd5b506004361061007d5760003560e01c806364b6a1481161005b57806364b6a148146100ee578063a6b63eb81461010c578063dbceb00514610128578063fb6e8962146101585761007d565b806324a47aeb146100825780634297711c146100b25780634f5fc3c1146100d0575b600080fd5b61009c6004803603810190610097919061113c565b610176565b6040516100a99190611184565b60405180910390f35b6100ba610750565b6040516100c791906111e0565b60405180910390f35b6100d8610776565b6040516100e591906111e0565b60405180910390f35b6100f661079c565b60405161010391906111e0565b60405180910390f35b61012660048036038101906101219190611227565b6107c2565b005b610142600480360381019061013d919061113c565b6108b6565b60405161014f9190611184565b60405180910390f35b610160610d31565b60405161016d91906111e0565b60405180910390f35b6000600260005414156101be576040517f08c379a00000000000000000000000000000000000000000000000000000000081526004016101b5906112ff565b60405180910390fd5b6002600081905550600a8210156101d457600080fd5b6101dc6110d8565b6101e46110d8565b6000600360009054906101000a900473ffffffffffffffffffffffffffffffffffffffff1690506000600460009054906101000a900473ffffffffffffffffffffffffffffffffffffffff1690506000600260009054906101000a900473ffffffffffffffffffffffffffffffffffffffff1673ffffffffffffffffffffffffffffffffffffffff166348aad3ed600160029054906101000a900473ffffffffffffffffffffffffffffffffffffffff166040518263ffffffff1660e01b81526004016102b191906111e0565b6000604051808303816000875af11580156102d0573d6000803e3d6000fd5b505050506040513d6000823e3d601f19601f820116820180604052508101906102f991906115a5565b90506402540be400600554604b89610311919061161d565b61031b919061161d565b61032591906116a6565b846020018181525050606460198861033d919061161d565b61034791906116a6565b8560200181815250508273ffffffffffffffffffffffffffffffffffffffff166370a08231336040518263ffffffff1660e01b815260040161038991906111e0565b602060405180830381865afa1580156103a6573d6000803e3d6000fd5b505050506040513d601f19601f820116820180604052508101906103ca91906116d7565b8460000181815250508173ffffffffffffffffffffffffffffffffffffffff166370a08231336040518263ffffffff1660e01b815260040161040c91906111e0565b602060405180830381865afa158015610429573d6000803e3d6000fd5b505050506040513d601f19601f8201168201806040525081019061044d91906116d7565b8560000181815250508460000151856020015111156104a1576040517f08c379a000000000000000000000000000000000000000000000000000000000815260040161049890611750565b60405180910390fd5b8360000151846020015111156104ec576040517f08c379a00000000000000000000000000000000000000000000000000000000081526004016104e3906117bc565b60405180910390fd5b600160029054906101000a900473ffffffffffffffffffffffffffffffffffffffff1673ffffffffffffffffffffffffffffffffffffffff1663095ea7b33383604001518a61053b91906117dc565b6040518363ffffffff1660e01b815260040161055892919061181f565b6020604051808303816000875af1158015610577573d6000803e3d6000fd5b505050506040513d601f19601f8201168201806040525081019061059b9190611848565b506105db6040518060400160405280600e81526020017f616c63684920616464723a20257300000000000000000000000000000000000081525030610d57565b610606604051806060016040528060298152602001611ad96029913985602001518760200151610df3565b8173ffffffffffffffffffffffffffffffffffffffff166379cc67903387602001516040518363ffffffff1660e01b815260040161064592919061181f565b600060405180830381600087803b15801561065f57600080fd5b505af1158015610673573d6000803e3d6000fd5b505050508273ffffffffffffffffffffffffffffffffffffffff166379cc67903386602001516040518363ffffffff1660e01b81526004016106b692919061181f565b600060405180830381600087803b1580156106d057600080fd5b505af11580156106e4573d6000803e3d6000fd5b505050503373ffffffffffffffffffffffffffffffffffffffff167f8421b0f95c0765e1ffbc4d13f827d1bdbee29eca261a6b9c2fa762e07409a14888600554604051610732929190611875565b60405180910390a26001955050505050506001600081905550919050565b600360009054906101000a900473ffffffffffffffffffffffffffffffffffffffff1681565b600260009054906101000a900473ffffffffffffffffffffffffffffffffffffffff1681565b600460009054906101000a900473ffffffffffffffffffffffffffffffffffffffff1681565b60018054906101000a900460ff166107ea57600160009054906101000a900460ff16156107f3565b6107f2610e92565b5b610832576040517f08c379a000000000000000000000000000000000000000000000000000000000815260040161082990611910565b60405180910390fd5b600060018054906101000a900460ff1615905080156108805760018060016101000a81548160ff02191690831515021790555060018060006101000a81548160ff0219169083151502179055505b61088d8686868686610ea3565b80156108ae5760006001806101000a81548160ff0219169083151502179055505b505050505050565b6000600260005414156108fe576040517f08c379a00000000000000000000000000000000000000000000000000000000081526004016108f5906112ff565b60405180910390fd5b6002600081905550600a82101561091457600080fd5b6000600160029054906101000a900473ffffffffffffffffffffffffffffffffffffffff1673ffffffffffffffffffffffffffffffffffffffff166370a08231336040518263ffffffff1660e01b815260040161097191906111e0565b602060405180830381865afa15801561098e573d6000803e3d6000fd5b505050506040513d601f19601f820116820180604052508101906109b291906116d7565b9050808311156109f7576040517f08c379a00000000000000000000000000000000000000000000000000000000081526004016109ee9061197c565b60405180910390fd5b6000600360009054906101000a900473ffffffffffffffffffffffffffffffffffffffff1690506000600460009054906101000a900473ffffffffffffffffffffffffffffffffffffffff1690506000600260009054906101000a900473ffffffffffffffffffffffffffffffffffffffff1673ffffffffffffffffffffffffffffffffffffffff166348aad3ed600160029054906101000a900473ffffffffffffffffffffffffffffffffffffffff166040518263ffffffff1660e01b8152600401610ac491906111e0565b6000604051808303816000875af1158015610ae3573d6000803e3d6000fd5b505050506040513d6000823e3d601f19601f82011682018060405250810190610b0c91906115a5565b905060006402540be400600554604b89610b26919061161d565b610b30919061161d565b610b3a91906116a6565b9050600160029054906101000a900473ffffffffffffffffffffffffffffffffffffffff1673ffffffffffffffffffffffffffffffffffffffff166323b872dd33308a6040518463ffffffff1660e01b8152600401610b9b9392919061199c565b6020604051808303816000875af1158015610bba573d6000803e3d6000fd5b505050506040513d601f19601f82011682018060405250810190610bde9190611848565b508373ffffffffffffffffffffffffffffffffffffffff166340c10f1933836040518363ffffffff1660e01b8152600401610c1a92919061181f565b600060405180830381600087803b158015610c3457600080fd5b505af1158015610c48573d6000803e3d6000fd5b505050508273ffffffffffffffffffffffffffffffffffffffff1663dbaad38833600554856000015186604001518c6040518663ffffffff1660e01b8152600401610c979594939291906119d3565b600060405180830381600087803b158015610cb157600080fd5b505af1158015610cc5573d6000803e3d6000fd5b505050503373ffffffffffffffffffffffffffffffffffffffff167f5d95162205dc900555172b9649799b0334d5c456a8c9d875524229cd73416d4b88600654604051610d13929190611875565b60405180910390a26001955050505050506001600081905550919050565b600160029054906101000a900473ffffffffffffffffffffffffffffffffffffffff1681565b610def8282604051602401610d6d929190611a6a565b6040516020818303038152906040527f319af333000000000000000000000000000000000000000000000000000000007bffffffffffffffffffffffffffffffffffffffffffffffffffffffff19166020820180517bffffffffffffffffffffffffffffffffffffffffffffffffffffffff838183161783525050505061109c565b5050565b610e8d838383604051602401610e0b93929190611a9a565b6040516020818303038152906040527f969cdd03000000000000000000000000000000000000000000000000000000007bffffffffffffffffffffffffffffffffffffffffffffffffffffffff19166020820180517bffffffffffffffffffffffffffffffffffffffffffffffffffffffff838183161783525050505061109c565b505050565b6000610e9d306110c5565b15905090565b60018054906101000a900460ff16610ecb57600160009054906101000a900460ff1615610ed4565b610ed3610e92565b5b610f13576040517f08c379a0000000000000000000000000000000000000000000000000000000008152600401610f0a90611910565b60405180910390fd5b600060018054906101000a900460ff161590508015610f615760018060016101000a81548160ff02191690831515021790555060018060006101000a81548160ff0219169083151502179055505b85600160026101000a81548173ffffffffffffffffffffffffffffffffffffffff021916908373ffffffffffffffffffffffffffffffffffffffff160217905550826005819055508160068190555033600260006101000a81548173ffffffffffffffffffffffffffffffffffffffff021916908373ffffffffffffffffffffffffffffffffffffffff16021790555084600360006101000a81548173ffffffffffffffffffffffffffffffffffffffff021916908373ffffffffffffffffffffffffffffffffffffffff16021790555083600460006101000a81548173ffffffffffffffffffffffffffffffffffffffff021916908373ffffffffffffffffffffffffffffffffffffffff16021790555080156110945760006001806101000a81548160ff0219169083151502179055505b505050505050565b60008151905060006a636f6e736f6c652e6c6f679050602083016000808483855afa5050505050565b600080823b905060008111915050919050565b604051806040016040528060008152602001600081525090565b6000604051905090565b600080fd5b600080fd5b6000819050919050565b61111981611106565b811461112457600080fd5b50565b60008135905061113681611110565b92915050565b600060208284031215611152576111516110fc565b5b600061116084828501611127565b91505092915050565b60008115159050919050565b61117e81611169565b82525050565b60006020820190506111996000830184611175565b92915050565b600073ffffffffffffffffffffffffffffffffffffffff82169050919050565b60006111ca8261119f565b9050919050565b6111da816111bf565b82525050565b60006020820190506111f560008301846111d1565b92915050565b611204816111bf565b811461120f57600080fd5b50565b600081359050611221816111fb565b92915050565b600080600080600060a08688031215611243576112426110fc565b5b600061125188828901611212565b955050602061126288828901611212565b945050604061127388828901611212565b935050606061128488828901611127565b925050608061129588828901611127565b9150509295509295909350565b600082825260208201905092915050565b7f5265656e7472616e637947756172643a207265656e7472616e742063616c6c00600082015250565b60006112e9601f836112a2565b91506112f4826112b3565b602082019050919050565b60006020820190508181036000830152611318816112dc565b9050919050565b600080fd5b6000601f19601f8301169050919050565b7f4e487b7100000000000000000000000000000000000000000000000000000000600052604160045260246000fd5b61136d82611324565b810181811067ffffffffffffffff8211171561138c5761138b611335565b5b80604052505050565b600061139f6110f2565b90506113ab8282611364565b919050565b600080fd5b6000815190506113c4816111fb565b92915050565b600080fd5b600080fd5b600067ffffffffffffffff8211156113ef576113ee611335565b5b6113f882611324565b9050602081019050919050565b60005b83811015611423578082015181840152602081019050611408565b83811115611432576000848401525b50505050565b600061144b611446846113d4565b611395565b905082815260208101848484011115611467576114666113cf565b5b611472848285611405565b509392505050565b600082601f83011261148f5761148e6113ca565b5b815161149f848260208601611438565b91505092915050565b6000815190506114b781611110565b92915050565b6114c681611169565b81146114d157600080fd5b50565b6000815190506114e3816114bd565b92915050565b600060c082840312156114ff576114fe61131f565b5b61150960c0611395565b90506000611519848285016113b5565b600083015250602082015167ffffffffffffffff81111561153d5761153c6113b0565b5b6115498482850161147a565b602083015250604061155d848285016114a8565b6040830152506060611571848285016114a8565b6060830152506080611585848285016114a8565b60808301525060a0611599848285016114d4565b60a08301525092915050565b6000602082840312156115bb576115ba6110fc565b5b600082015167ffffffffffffffff8111156115d9576115d8611101565b5b6115e5848285016114e9565b91505092915050565b7f4e487b7100000000000000000000000000000000000000000000000000000000600052601160045260246000fd5b600061162882611106565b915061163383611106565b9250817fffffffffffffffffffffffffffffffffffffffffffffffffffffffffffffffff048311821515161561166c5761166b6115ee565b5b828202905092915050565b7f4e487b7100000000000000000000000000000000000000000000000000000000600052601260045260246000fd5b60006116b182611106565b91506116bc83611106565b9250826116cc576116cb611677565b5b828204905092915050565b6000602082840312156116ed576116ec6110fc565b5b60006116fb848285016114a8565b91505092915050565b7f4e656564206d6f726520456c6978697200000000000000000000000000000000600082015250565b600061173a6010836112a2565b915061174582611704565b602082019050919050565b600060208201905081810360008301526117698161172d565b9050919050565b7f4e656564206d6f72652053746561647900000000000000000000000000000000600082015250565b60006117a66010836112a2565b91506117b182611770565b602082019050919050565b600060208201905081810360008301526117d581611799565b9050919050565b60006117e782611106565b91506117f283611106565b925082821015611805576118046115ee565b5b828203905092915050565b61181981611106565b82525050565b600060408201905061183460008301856111d1565b6118416020830184611810565b9392505050565b60006020828403121561185e5761185d6110fc565b5b600061186c848285016114d4565b91505092915050565b600060408201905061188a6000830185611810565b6118976020830184611810565b9392505050565b7f496e697469616c697a61626c653a20636f6e747261637420697320616c72656160008201527f647920696e697469616c697a6564000000000000000000000000000000000000602082015250565b60006118fa602e836112a2565b91506119058261189e565b604082019050919050565b60006020820190508181036000830152611929816118ed565b9050919050565b7f596f7520646f206e6f74206861766520656e6f756768204368796d6500000000600082015250565b6000611966601c836112a2565b915061197182611930565b602082019050919050565b6000602082019050818103600083015261199581611959565b9050919050565b60006060820190506119b160008301866111d1565b6119be60208301856111d1565b6119cb6040830184611810565b949350505050565b600060a0820190506119e860008301886111d1565b6119f56020830187611810565b611a0260408301866111d1565b611a0f6060830185611810565b611a1c6080830184611810565b9695505050505050565b600081519050919050565b6000611a3c82611a26565b611a4681856112a2565b9350611a56818560208601611405565b611a5f81611324565b840191505092915050565b60006040820190508181036000830152611a848185611a31565b9050611a9360208301846111d1565b9392505050565b60006060820190508181036000830152611ab48186611a31565b9050611ac36020830185611810565b611ad06040830184611810565b94935050505056fe5472696e6720746f206d65726765205374656164793a2025732c207c7c2020456c697869723a202573a2646970667358221220f9c46275a5a913dfc6d8a58c87957db1113b5f14f41888d1f12029c62c928b5264736f6c634300080b0033",
  "linkReferences": {},
  "deployedLinkReferences": {}
}