{
  "_format": "hh-sol-artifact-1",
  "contractName": "Elixir",
  "sourceName": "contracts/ElixirNFT.sol",
  "abi": [
    {
      "inputs": [
        {
          "internalType": "string",
          "name": "name_",
          "type": "string"
        },
        {
          "internalType": "string",
          "name": "symbol_",
          "type": "string"
        }
      ],
      "stateMutability": "nonpayable",
      "type": "constructor"
    },
    {
      "anonymous": false,
      "inputs": [
        {
          "indexed": true,
          "internalType": "address",
          "name": "owner",
          "type": "address"
        },
        {
          "indexed": true,
          "internalType": "address",
          "name": "approved",
          "type": "address"
        },
        {
          "indexed": true,
          "internalType": "uint256",
          "name": "tokenId",
          "type": "uint256"
        }
      ],
      "name": "Approval",
      "type": "event"
    },
    {
      "anonymous": false,
      "inputs": [
        {
          "indexed": true,
          "internalType": "address",
          "name": "owner",
          "type": "address"
        },
        {
          "indexed": true,
          "internalType": "address",
          "name": "operator",
          "type": "address"
        },
        {
          "indexed": false,
          "internalType": "bool",
          "name": "approved",
          "type": "bool"
        }
      ],
      "name": "ApprovalForAll",
      "type": "event"
    },
    {
      "anonymous": false,
      "inputs": [
        {
          "indexed": true,
          "internalType": "bytes32",
          "name": "role",
          "type": "bytes32"
        },
        {
          "indexed": true,
          "internalType": "bytes32",
          "name": "previousAdminRole",
          "type": "bytes32"
        },
        {
          "indexed": true,
          "internalType": "bytes32",
          "name": "newAdminRole",
          "type": "bytes32"
        }
      ],
      "name": "RoleAdminChanged",
      "type": "event"
    },
    {
      "anonymous": false,
      "inputs": [
        {
          "indexed": true,
          "internalType": "bytes32",
          "name": "role",
          "type": "bytes32"
        },
        {
          "indexed": true,
          "internalType": "address",
          "name": "account",
          "type": "address"
        },
        {
          "indexed": true,
          "internalType": "address",
          "name": "sender",
          "type": "address"
        }
      ],
      "name": "RoleGranted",
      "type": "event"
    },
    {
      "anonymous": false,
      "inputs": [
        {
          "indexed": true,
          "internalType": "bytes32",
          "name": "role",
          "type": "bytes32"
        },
        {
          "indexed": true,
          "internalType": "address",
          "name": "account",
          "type": "address"
        },
        {
          "indexed": true,
          "internalType": "address",
          "name": "sender",
          "type": "address"
        }
      ],
      "name": "RoleRevoked",
      "type": "event"
    },
    {
      "anonymous": false,
      "inputs": [
        {
          "indexed": true,
          "internalType": "address",
          "name": "from",
          "type": "address"
        },
        {
          "indexed": true,
          "internalType": "address",
          "name": "to",
          "type": "address"
        },
        {
          "indexed": true,
          "internalType": "uint256",
          "name": "tokenId",
          "type": "uint256"
        }
      ],
      "name": "Transfer",
      "type": "event"
    },
    {
      "inputs": [],
      "name": "DEFAULT_ADMIN_ROLE",
      "outputs": [
        {
          "internalType": "bytes32",
          "name": "",
          "type": "bytes32"
        }
      ],
      "stateMutability": "view",
      "type": "function"
    },
    {
      "inputs": [],
      "name": "MINTER_ROLE",
      "outputs": [
        {
          "internalType": "bytes32",
          "name": "",
          "type": "bytes32"
        }
      ],
      "stateMutability": "view",
      "type": "function"
    },
    {
      "inputs": [
        {
          "internalType": "address",
          "name": "to",
          "type": "address"
        },
        {
          "internalType": "uint256",
          "name": "tokenId",
          "type": "uint256"
        }
      ],
      "name": "approve",
      "outputs": [],
      "stateMutability": "nonpayable",
      "type": "function"
    },
    {
      "inputs": [
        {
          "internalType": "address",
          "name": "owner",
          "type": "address"
        }
      ],
      "name": "balanceOf",
      "outputs": [
        {
          "internalType": "uint256",
          "name": "",
          "type": "uint256"
        }
      ],
      "stateMutability": "view",
      "type": "function"
    },
    {
      "inputs": [
        {
          "internalType": "uint256",
          "name": "tokenId",
          "type": "uint256"
        }
      ],
      "name": "burn",
      "outputs": [],
      "stateMutability": "nonpayable",
      "type": "function"
    },
    {
      "inputs": [
        {
          "internalType": "uint256",
          "name": "",
          "type": "uint256"
        }
      ],
      "name": "elements",
      "outputs": [
        {
          "internalType": "uint256",
          "name": "fees",
          "type": "uint256"
        },
        {
          "internalType": "uint256",
          "name": "amount",
          "type": "uint256"
        },
        {
          "internalType": "uint256",
          "name": "ratio",
          "type": "uint256"
        },
        {
          "internalType": "uint256",
          "name": "forgePrice",
          "type": "uint256"
        },
        {
          "internalType": "address",
          "name": "oracle",
          "type": "address"
        },
        {
          "internalType": "address",
          "name": "alchemistId",
          "type": "address"
        }
      ],
      "stateMutability": "view",
      "type": "function"
    },
    {
      "inputs": [
        {
          "internalType": "uint256",
          "name": "tokenId",
          "type": "uint256"
        }
      ],
      "name": "generateBase64Image",
      "outputs": [
        {
          "internalType": "string",
          "name": "",
          "type": "string"
        }
      ],
      "stateMutability": "view",
      "type": "function"
    },
    {
      "inputs": [
        {
          "internalType": "uint256",
          "name": "tokenId",
          "type": "uint256"
        }
      ],
      "name": "generateImage",
      "outputs": [
        {
          "internalType": "string",
          "name": "",
          "type": "string"
        }
      ],
      "stateMutability": "view",
      "type": "function"
    },
    {
      "inputs": [
        {
          "internalType": "uint256",
          "name": "tokenId",
          "type": "uint256"
        }
      ],
      "name": "getApproved",
      "outputs": [
        {
          "internalType": "address",
          "name": "",
          "type": "address"
        }
      ],
      "stateMutability": "view",
      "type": "function"
    },
    {
      "inputs": [
        {
          "internalType": "bytes32",
          "name": "role",
          "type": "bytes32"
        }
      ],
      "name": "getRoleAdmin",
      "outputs": [
        {
          "internalType": "bytes32",
          "name": "",
          "type": "bytes32"
        }
      ],
      "stateMutability": "view",
      "type": "function"
    },
    {
      "inputs": [
        {
          "internalType": "bytes32",
          "name": "role",
          "type": "bytes32"
        },
        {
          "internalType": "address",
          "name": "account",
          "type": "address"
        }
      ],
      "name": "grantRole",
      "outputs": [],
      "stateMutability": "nonpayable",
      "type": "function"
    },
    {
      "inputs": [
        {
          "internalType": "bytes32",
          "name": "role",
          "type": "bytes32"
        },
        {
          "internalType": "address",
          "name": "account",
          "type": "address"
        }
      ],
      "name": "hasRole",
      "outputs": [
        {
          "internalType": "bool",
          "name": "",
          "type": "bool"
        }
      ],
      "stateMutability": "view",
      "type": "function"
    },
    {
      "inputs": [
        {
          "internalType": "address",
          "name": "owner",
          "type": "address"
        },
        {
          "internalType": "address",
          "name": "operator",
          "type": "address"
        }
      ],
      "name": "isApprovedForAll",
      "outputs": [
        {
          "internalType": "bool",
          "name": "",
          "type": "bool"
        }
      ],
      "stateMutability": "view",
      "type": "function"
    },
    {
      "inputs": [],
      "name": "name",
      "outputs": [
        {
          "internalType": "string",
          "name": "",
          "type": "string"
        }
      ],
      "stateMutability": "view",
      "type": "function"
    },
    {
      "inputs": [],
      "name": "owner",
      "outputs": [
        {
          "internalType": "address",
          "name": "",
          "type": "address"
        }
      ],
      "stateMutability": "view",
      "type": "function"
    },
    {
      "inputs": [
        {
          "internalType": "uint256",
          "name": "tokenId",
          "type": "uint256"
        }
      ],
      "name": "ownerOf",
      "outputs": [
        {
          "internalType": "address",
          "name": "",
          "type": "address"
        }
      ],
      "stateMutability": "view",
      "type": "function"
    },
    {
      "inputs": [
        {
          "internalType": "address",
          "name": "_priceOracle",
          "type": "address"
        }
      ],
      "name": "priceFromOracle",
      "outputs": [
        {
          "internalType": "int256",
          "name": "price",
          "type": "int256"
        }
      ],
      "stateMutability": "view",
      "type": "function"
    },
    {
      "inputs": [
        {
          "internalType": "bytes32",
          "name": "role",
          "type": "bytes32"
        },
        {
          "internalType": "address",
          "name": "account",
          "type": "address"
        }
      ],
      "name": "renounceRole",
      "outputs": [],
      "stateMutability": "nonpayable",
      "type": "function"
    },
    {
      "inputs": [
        {
          "internalType": "bytes32",
          "name": "role",
          "type": "bytes32"
        },
        {
          "internalType": "address",
          "name": "account",
          "type": "address"
        }
      ],
      "name": "revokeRole",
      "outputs": [],
      "stateMutability": "nonpayable",
      "type": "function"
    },
    {
      "inputs": [
        {
          "internalType": "address",
          "name": "to",
          "type": "address"
        },
        {
          "internalType": "uint256",
          "name": "forgePrice",
          "type": "uint256"
        },
        {
          "internalType": "uint256",
          "name": "ratio",
          "type": "uint256"
        },
        {
          "internalType": "address",
          "name": "oracle",
          "type": "address"
        },
        {
          "internalType": "uint256",
          "name": "fees",
          "type": "uint256"
        },
        {
          "internalType": "uint256",
          "name": "amount",
          "type": "uint256"
        }
      ],
      "name": "safeMint",
      "outputs": [],
      "stateMutability": "nonpayable",
      "type": "function"
    },
    {
      "inputs": [
        {
          "internalType": "address",
          "name": "from",
          "type": "address"
        },
        {
          "internalType": "address",
          "name": "to",
          "type": "address"
        },
        {
          "internalType": "uint256",
          "name": "tokenId",
          "type": "uint256"
        }
      ],
      "name": "safeTransferFrom",
      "outputs": [],
      "stateMutability": "nonpayable",
      "type": "function"
    },
    {
      "inputs": [
        {
          "internalType": "address",
          "name": "from",
          "type": "address"
        },
        {
          "internalType": "address",
          "name": "to",
          "type": "address"
        },
        {
          "internalType": "uint256",
          "name": "tokenId",
          "type": "uint256"
        },
        {
          "internalType": "bytes",
          "name": "_data",
          "type": "bytes"
        }
      ],
      "name": "safeTransferFrom",
      "outputs": [],
      "stateMutability": "nonpayable",
      "type": "function"
    },
    {
      "inputs": [
        {
          "internalType": "address",
          "name": "operator",
          "type": "address"
        },
        {
          "internalType": "bool",
          "name": "approved",
          "type": "bool"
        }
      ],
      "name": "setApprovalForAll",
      "outputs": [],
      "stateMutability": "nonpayable",
      "type": "function"
    },
    {
      "inputs": [
        {
          "internalType": "bytes4",
          "name": "interfaceId",
          "type": "bytes4"
        }
      ],
      "name": "supportsInterface",
      "outputs": [
        {
          "internalType": "bool",
          "name": "",
          "type": "bool"
        }
      ],
      "stateMutability": "view",
      "type": "function"
    },
    {
      "inputs": [],
      "name": "symbol",
      "outputs": [
        {
          "internalType": "string",
          "name": "",
          "type": "string"
        }
      ],
      "stateMutability": "view",
      "type": "function"
    },
    {
      "inputs": [
        {
          "internalType": "uint256",
          "name": "tokenId",
          "type": "uint256"
        }
      ],
      "name": "tokenURI",
      "outputs": [
        {
          "internalType": "string",
          "name": "",
          "type": "string"
        }
      ],
      "stateMutability": "view",
      "type": "function"
    },
    {
      "inputs": [
        {
          "internalType": "address",
          "name": "from",
          "type": "address"
        },
        {
          "internalType": "address",
          "name": "to",
          "type": "address"
        },
        {
          "internalType": "uint256",
          "name": "tokenId",
          "type": "uint256"
        }
      ],
      "name": "transferFrom",
      "outputs": [],
      "stateMutability": "nonpayable",
      "type": "function"
    }
  ],
  "bytecode": "0x608060405273c1c5da1673935527d4efe1714ef8dcbee12a9380600860006101000a81548173ffffffffffffffffffffffffffffffffffffffff021916908373ffffffffffffffffffffffffffffffffffffffff1602179055503480156200006657600080fd5b50604051620086ec380380620086ec83398181016040528101906200008c9190620004d9565b81818160009080519060200190620000a69291906200028c565b508060019080519060200190620000bf9291906200028c565b505050620000d76000801b336200011160201b60201c565b620001097f9f2df0fed2c77648de5860a4cc508cd0818c85b8b8a1ab4ceeef8d981c8956a6336200011160201b60201c565b5050620005c3565b6200012382826200012760201b60201c565b5050565b6200013982826200021960201b60201c565b620002155760016006600084815260200190815260200160002060000160008373ffffffffffffffffffffffffffffffffffffffff1673ffffffffffffffffffffffffffffffffffffffff16815260200190815260200160002060006101000a81548160ff021916908315150217905550620001ba6200028460201b60201c565b73ffffffffffffffffffffffffffffffffffffffff168173ffffffffffffffffffffffffffffffffffffffff16837f2f8788117e7eff1d82e926ec794901d17c78024a50270940304540a733656f0d60405160405180910390a45b5050565b60006006600084815260200190815260200160002060000160008373ffffffffffffffffffffffffffffffffffffffff1673ffffffffffffffffffffffffffffffffffffffff16815260200190815260200160002060009054906101000a900460ff16905092915050565b600033905090565b8280546200029a906200058d565b90600052602060002090601f016020900481019282620002be57600085556200030a565b82601f10620002d957805160ff19168380011785556200030a565b828001600101855582156200030a579182015b8281111562000309578251825591602001919060010190620002ec565b5b5090506200031991906200031d565b5090565b5b80821115620003385760008160009055506001016200031e565b5090565b6000604051905090565b600080fd5b600080fd5b600080fd5b600080fd5b6000601f19601f8301169050919050565b7f4e487b7100000000000000000000000000000000000000000000000000000000600052604160045260246000fd5b620003a5826200035a565b810181811067ffffffffffffffff82111715620003c757620003c66200036b565b5b80604052505050565b6000620003dc6200033c565b9050620003ea82826200039a565b919050565b600067ffffffffffffffff8211156200040d576200040c6200036b565b5b62000418826200035a565b9050602081019050919050565b60005b838110156200044557808201518184015260208101905062000428565b8381111562000455576000848401525b50505050565b6000620004726200046c84620003ef565b620003d0565b90508281526020810184848401111562000491576200049062000355565b5b6200049e84828562000425565b509392505050565b600082601f830112620004be57620004bd62000350565b5b8151620004d08482602086016200045b565b91505092915050565b60008060408385031215620004f357620004f262000346565b5b600083015167ffffffffffffffff8111156200051457620005136200034b565b5b6200052285828601620004a6565b925050602083015167ffffffffffffffff8111156200054657620005456200034b565b5b6200055485828601620004a6565b9150509250929050565b7f4e487b7100000000000000000000000000000000000000000000000000000000600052602260045260246000fd5b60006002820490506001821680620005a657607f821691505b60208210811415620005bd57620005bc6200055e565b5b50919050565b61811980620005d36000396000f3fe608060405234801561001057600080fd5b50600436106101a95760003560e01c806364a638b9116100f9578063a48b3b8f11610097578063d539139311610071578063d539139314610502578063d547741f14610520578063e0d64b371461053c578063e985e9c514610571576101a9565b8063a48b3b8f14610486578063b88d4fde146104b6578063c87b56dd146104d2576101a9565b806391d14854116100d357806391d14854146103fe57806395d89b411461042e578063a217fddf1461044c578063a22cb4651461046a576101a9565b806364a638b91461039457806370a08231146103b05780638da5cb5b146103e0576101a9565b80632f2ff15d1161016657806342966c681161014057806342966c68146102e85780634b44d812146103045780634b5fc8db146103345780636352211e14610364576101a9565b80632f2ff15d1461029457806336568abe146102b057806342842e0e146102cc576101a9565b806301ffc9a7146101ae57806306fdde03146101de578063081812fc146101fc578063095ea7b31461022c57806323b872dd14610248578063248a9ca314610264575b600080fd5b6101c860048036038101906101c39190612acf565b6105a1565b6040516101d59190612b17565b60405180910390f35b6101e66105b3565b6040516101f39190612bcb565b60405180910390f35b61021660048036038101906102119190612c23565b610645565b6040516102239190612c91565b60405180910390f35b61024660048036038101906102419190612cd8565b6106ca565b005b610262600480360381019061025d9190612d18565b6107e2565b005b61027e60048036038101906102799190612da1565b610842565b60405161028b9190612ddd565b60405180910390f35b6102ae60048036038101906102a99190612df8565b610862565b005b6102ca60048036038101906102c59190612df8565b61088b565b005b6102e660048036038101906102e19190612d18565b61090e565b005b61030260048036038101906102fd9190612c23565b61092e565b005b61031e60048036038101906103199190612c23565b61098a565b60405161032b9190612bcb565b60405180910390f35b61034e60048036038101906103499190612e38565b610ae9565b60405161035b9190612e7e565b60405180910390f35b61037e60048036038101906103799190612c23565b610c56565b60405161038b9190612c91565b60405180910390f35b6103ae60048036038101906103a99190612e99565b610d08565b005b6103ca60048036038101906103c59190612e38565b610e8b565b6040516103d79190612f35565b60405180910390f35b6103e8610f43565b6040516103f59190612c91565b60405180910390f35b61041860048036038101906104139190612df8565b610f69565b6040516104259190612b17565b60405180910390f35b610436610fd4565b6040516104439190612bcb565b60405180910390f35b610454611066565b6040516104619190612ddd565b60405180910390f35b610484600480360381019061047f9190612f7c565b61106d565b005b6104a0600480360381019061049b9190612c23565b611083565b6040516104ad9190612bcb565b60405180910390f35b6104d060048036038101906104cb91906130f1565b61109d565b005b6104ec60048036038101906104e79190612c23565b6110ff565b6040516104f99190612bcb565b60405180910390f35b61050a611211565b6040516105179190612ddd565b60405180910390f35b61053a60048036038101906105359190612df8565b611235565b005b61055660048036038101906105519190612c23565b61125e565b60405161056896959493929190613174565b60405180910390f35b61058b600480360381019061058691906131d5565b6112da565b6040516105989190612b17565b60405180910390f35b60006105ac8261136e565b9050919050565b6060600080546105c290613244565b80601f01602080910402602001604051908101604052809291908181526020018280546105ee90613244565b801561063b5780601f106106105761010080835404028352916020019161063b565b820191906000526020600020905b81548152906001019060200180831161061e57829003601f168201915b5050505050905090565b6000610650826113e8565b61068f576040517f08c379a0000000000000000000000000000000000000000000000000000000008152600401610686906132e8565b60405180910390fd5b6004600083815260200190815260200160002060009054906101000a900473ffffffffffffffffffffffffffffffffffffffff169050919050565b60006106d582610c56565b90508073ffffffffffffffffffffffffffffffffffffffff168373ffffffffffffffffffffffffffffffffffffffff161415610746576040517f08c379a000000000000000000000000000000000000000000000000000000000815260040161073d9061337a565b60405180910390fd5b8073ffffffffffffffffffffffffffffffffffffffff16610765611454565b73ffffffffffffffffffffffffffffffffffffffff16148061079457506107938161078e611454565b6112da565b5b6107d3576040517f08c379a00000000000000000000000000000000000000000000000000000000081526004016107ca9061340c565b60405180910390fd5b6107dd838361145c565b505050565b6107f36107ed611454565b82611515565b610832576040517f08c379a00000000000000000000000000000000000000000000000000000000081526004016108299061349e565b60405180910390fd5b61083d8383836115f3565b505050565b600060066000838152602001908152602001600020600101549050919050565b61086b82610842565b61087c81610877611454565b61184f565b61088683836118ec565b505050565b610893611454565b73ffffffffffffffffffffffffffffffffffffffff168173ffffffffffffffffffffffffffffffffffffffff1614610900576040517f08c379a00000000000000000000000000000000000000000000000000000000081526004016108f790613530565b60405180910390fd5b61090a82826119cd565b5050565b6109298383836040518060200160405280600081525061109d565b505050565b61093f610939611454565b82611515565b61097e576040517f08c379a0000000000000000000000000000000000000000000000000000000008152600401610975906135c2565b60405180910390fd5b61098781611aaf565b50565b60606000610996611bc0565b905060006064600960008681526020019081526020016000206002015460096000878152602001908152602001600020600301546109d49190613611565b6109de919061369a565b90506000610a63620f4240600960008881526020019081526020016000206001015484610a40600960008b815260200190815260200160002060040160009054906101000a900473ffffffffffffffffffffffffffffffffffffffff16610ae9565b610a4a91906136cb565b610a549190613611565b610a5e919061369a565b611be5565b905080610abd6009600088815260200190815260200160002060050160009054906101000a900473ffffffffffffffffffffffffffffffffffffffff1673ffffffffffffffffffffffffffffffffffffffff166014611d46565b84604051602001610ad093929190614685565b6040516020818303038152906040529350505050919050565b6000806040516024016040516020818303038152906040527f50d25bcd000000000000000000000000000000000000000000000000000000007bffffffffffffffffffffffffffffffffffffffffffffffffffffffff19166020820180517bffffffffffffffffffffffffffffffffffffffffffffffffffffffff8381831617835250505050905060008373ffffffffffffffffffffffffffffffffffffffff1682604051610b989190614873565b600060405180830381855afa9150503d8060008114610bd3576040519150601f19603f3d011682016040523d82523d6000602084013e610bd8565b606091505b5091505080806020019051810190610bf091906148b6565b925060018312158015610c1057506c0c9f2c9cd04674edea400000008313155b610c4f576040517f08c379a0000000000000000000000000000000000000000000000000000000008152600401610c469061492f565b60405180910390fd5b5050919050565b6000806002600084815260200190815260200160002060009054906101000a900473ffffffffffffffffffffffffffffffffffffffff169050600073ffffffffffffffffffffffffffffffffffffffff168173ffffffffffffffffffffffffffffffffffffffff161415610cff576040517f08c379a0000000000000000000000000000000000000000000000000000000008152600401610cf6906149c1565b60405180910390fd5b80915050919050565b7f9f2df0fed2c77648de5860a4cc508cd0818c85b8b8a1ab4ceeef8d981c8956a6610d3a81610d35611454565b61184f565b6000610d466007611f82565b9050610d526007611f90565b610d5c8882611fa6565b6040518060c001604052808581526020018481526020018781526020018881526020018673ffffffffffffffffffffffffffffffffffffffff1681526020013373ffffffffffffffffffffffffffffffffffffffff16815250600960008381526020019081526020016000206000820151816000015560208201518160010155604082015181600201556060820151816003015560808201518160040160006101000a81548173ffffffffffffffffffffffffffffffffffffffff021916908373ffffffffffffffffffffffffffffffffffffffff16021790555060a08201518160050160006101000a81548173ffffffffffffffffffffffffffffffffffffffff021916908373ffffffffffffffffffffffffffffffffffffffff1602179055509050505050505050505050565b60008073ffffffffffffffffffffffffffffffffffffffff168273ffffffffffffffffffffffffffffffffffffffff161415610efc576040517f08c379a0000000000000000000000000000000000000000000000000000000008152600401610ef390614a53565b60405180910390fd5b600360008373ffffffffffffffffffffffffffffffffffffffff1673ffffffffffffffffffffffffffffffffffffffff168152602001908152602001600020549050919050565b600860009054906101000a900473ffffffffffffffffffffffffffffffffffffffff1681565b60006006600084815260200190815260200160002060000160008373ffffffffffffffffffffffffffffffffffffffff1673ffffffffffffffffffffffffffffffffffffffff16815260200190815260200160002060009054906101000a900460ff16905092915050565b606060018054610fe390613244565b80601f016020809104026020016040519081016040528092919081815260200182805461100f90613244565b801561105c5780601f106110315761010080835404028352916020019161105c565b820191906000526020600020905b81548152906001019060200180831161103f57829003601f168201915b5050505050905090565b6000801b81565b61107f611078611454565b8383611fc4565b5050565b60606110966110918361098a565b612131565b9050919050565b6110ae6110a8611454565b83611515565b6110ed576040517f08c379a00000000000000000000000000000000000000000000000000000000081526004016110e49061349e565b60405180910390fd5b6110f9848484846122b6565b50505050565b606061110a826113e8565b611149576040517f08c379a000000000000000000000000000000000000000000000000000000000815260040161114090614ae5565b60405180910390fd5b600061115483611be5565b6040516020016111649190614b51565b604051602081830303815290604052905060006040518060400160405280601381526020017f456c69786972204e465420537061677972696100000000000000000000000000815250905060006111ba85611083565b90506111e88383836040516020016111d493929190614cef565b604051602081830303815290604052612131565b6040516020016111f89190614da3565b6040516020818303038152906040529350505050919050565b7f9f2df0fed2c77648de5860a4cc508cd0818c85b8b8a1ab4ceeef8d981c8956a681565b61123e82610842565b61124f8161124a611454565b61184f565b61125983836119cd565b505050565b60096020528060005260406000206000915090508060000154908060010154908060020154908060030154908060040160009054906101000a900473ffffffffffffffffffffffffffffffffffffffff16908060050160009054906101000a900473ffffffffffffffffffffffffffffffffffffffff16905086565b6000600560008473ffffffffffffffffffffffffffffffffffffffff1673ffffffffffffffffffffffffffffffffffffffff16815260200190815260200160002060008373ffffffffffffffffffffffffffffffffffffffff1673ffffffffffffffffffffffffffffffffffffffff16815260200190815260200160002060009054906101000a900460ff16905092915050565b60007f7965db0b000000000000000000000000000000000000000000000000000000007bffffffffffffffffffffffffffffffffffffffffffffffffffffffff1916827bffffffffffffffffffffffffffffffffffffffffffffffffffffffff191614806113e157506113e082612312565b5b9050919050565b60008073ffffffffffffffffffffffffffffffffffffffff166002600084815260200190815260200160002060009054906101000a900473ffffffffffffffffffffffffffffffffffffffff1673ffffffffffffffffffffffffffffffffffffffff1614159050919050565b600033905090565b816004600083815260200190815260200160002060006101000a81548173ffffffffffffffffffffffffffffffffffffffff021916908373ffffffffffffffffffffffffffffffffffffffff160217905550808273ffffffffffffffffffffffffffffffffffffffff166114cf83610c56565b73ffffffffffffffffffffffffffffffffffffffff167f8c5be1e5ebec7d5bd14f71427d1e84f3dd0314c0f7b2291e5b200ac8c7c3b92560405160405180910390a45050565b6000611520826113e8565b61155f576040517f08c379a000000000000000000000000000000000000000000000000000000000815260040161155690614e37565b60405180910390fd5b600061156a83610c56565b90508073ffffffffffffffffffffffffffffffffffffffff168473ffffffffffffffffffffffffffffffffffffffff1614806115d957508373ffffffffffffffffffffffffffffffffffffffff166115c184610645565b73ffffffffffffffffffffffffffffffffffffffff16145b806115ea57506115e981856112da565b5b91505092915050565b8273ffffffffffffffffffffffffffffffffffffffff1661161382610c56565b73ffffffffffffffffffffffffffffffffffffffff1614611669576040517f08c379a000000000000000000000000000000000000000000000000000000000815260040161166090614ec9565b60405180910390fd5b600073ffffffffffffffffffffffffffffffffffffffff168273ffffffffffffffffffffffffffffffffffffffff1614156116d9576040517f08c379a00000000000000000000000000000000000000000000000000000000081526004016116d090614f5b565b60405180910390fd5b6116e48383836123f4565b6116ef60008261145c565b6001600360008573ffffffffffffffffffffffffffffffffffffffff1673ffffffffffffffffffffffffffffffffffffffff168152602001908152602001600020600082825461173f91906136cb565b925050819055506001600360008473ffffffffffffffffffffffffffffffffffffffff1673ffffffffffffffffffffffffffffffffffffffff16815260200190815260200160002060008282546117969190614f7b565b92505081905550816002600083815260200190815260200160002060006101000a81548173ffffffffffffffffffffffffffffffffffffffff021916908373ffffffffffffffffffffffffffffffffffffffff160217905550808273ffffffffffffffffffffffffffffffffffffffff168473ffffffffffffffffffffffffffffffffffffffff167fddf252ad1be2c89b69c2b068fc378daa952ba7f163c4a11628f55a4df523b3ef60405160405180910390a4505050565b6118598282610f69565b6118e85761187e8173ffffffffffffffffffffffffffffffffffffffff1660146123f9565b61188c8360001c60206123f9565b60405160200161189d929190615069565b6040516020818303038152906040526040517f08c379a00000000000000000000000000000000000000000000000000000000081526004016118df9190612bcb565b60405180910390fd5b5050565b6118f68282610f69565b6119c95760016006600084815260200190815260200160002060000160008373ffffffffffffffffffffffffffffffffffffffff1673ffffffffffffffffffffffffffffffffffffffff16815260200190815260200160002060006101000a81548160ff02191690831515021790555061196e611454565b73ffffffffffffffffffffffffffffffffffffffff168173ffffffffffffffffffffffffffffffffffffffff16837f2f8788117e7eff1d82e926ec794901d17c78024a50270940304540a733656f0d60405160405180910390a45b5050565b6119d78282610f69565b15611aab5760006006600084815260200190815260200160002060000160008373ffffffffffffffffffffffffffffffffffffffff1673ffffffffffffffffffffffffffffffffffffffff16815260200190815260200160002060006101000a81548160ff021916908315150217905550611a50611454565b73ffffffffffffffffffffffffffffffffffffffff168173ffffffffffffffffffffffffffffffffffffffff16837ff6391f5c32d9c69d2a47ea670b442974b53935d1edc7fd64eb21e047a839171b60405160405180910390a45b5050565b6000611aba82610c56565b9050611ac8816000846123f4565b611ad360008361145c565b6001600360008373ffffffffffffffffffffffffffffffffffffffff1673ffffffffffffffffffffffffffffffffffffffff1681526020019081526020016000206000828254611b2391906136cb565b925050819055506002600083815260200190815260200160002060006101000a81549073ffffffffffffffffffffffffffffffffffffffff021916905581600073ffffffffffffffffffffffffffffffffffffffff168273ffffffffffffffffffffffffffffffffffffffff167fddf252ad1be2c89b69c2b068fc378daa952ba7f163c4a11628f55a4df523b3ef60405160405180910390a45050565b6060604051602001611bd190617b6f565b604051602081830303815290604052905090565b60606000821415611c2d576040518060400160405280600181526020017f30000000000000000000000000000000000000000000000000000000000000008152509050611d41565b600082905060005b60008214611c5f578080611c4890617c4a565b915050600a82611c58919061369a565b9150611c35565b60008167ffffffffffffffff811115611c7b57611c7a612fc6565b5b6040519080825280601f01601f191660200182016040528015611cad5781602001600182028036833780820191505090505b5090505b60008514611d3a57600182611cc691906136cb565b9150600a85611cd59190617c93565b6030611ce19190614f7b565b60f81b818381518110611cf757611cf6617cc4565b5b60200101907effffffffffffffffffffffffffffffffffffffffffffffffffffffffffffff1916908160001a905350600a85611d33919061369a565b9450611cb1565b8093505050505b919050565b606060006002836002611d599190613611565b611d639190614f7b565b67ffffffffffffffff811115611d7c57611d7b612fc6565b5b6040519080825280601f01601f191660200182016040528015611dae5781602001600182028036833780820191505090505b5090507f300000000000000000000000000000000000000000000000000000000000000081600081518110611de657611de5617cc4565b5b60200101907effffffffffffffffffffffffffffffffffffffffffffffffffffffffffffff1916908160001a9053507f780000000000000000000000000000000000000000000000000000000000000081600181518110611e4a57611e49617cc4565b5b60200101907effffffffffffffffffffffffffffffffffffffffffffffffffffffffffffff1916908160001a90535060006001846002611e8a9190613611565b611e949190614f7b565b90505b6001811115611f34577f3031323334353637383961626364656600000000000000000000000000000000600f861660108110611ed657611ed5617cc4565b5b1a60f81b828281518110611eed57611eec617cc4565b5b60200101907effffffffffffffffffffffffffffffffffffffffffffffffffffffffffffff1916908160001a905350600485901c945080611f2d90617cf3565b9050611e97565b5060008414611f78576040517f08c379a0000000000000000000000000000000000000000000000000000000008152600401611f6f90617d69565b60405180910390fd5b8091505092915050565b600081600001549050919050565b6001816000016000828254019250508190555050565b611fc0828260405180602001604052806000815250612635565b5050565b8173ffffffffffffffffffffffffffffffffffffffff168373ffffffffffffffffffffffffffffffffffffffff161415612033576040517f08c379a000000000000000000000000000000000000000000000000000000000815260040161202a90617dd5565b60405180910390fd5b80600560008573ffffffffffffffffffffffffffffffffffffffff1673ffffffffffffffffffffffffffffffffffffffff16815260200190815260200160002060008473ffffffffffffffffffffffffffffffffffffffff1673ffffffffffffffffffffffffffffffffffffffff16815260200190815260200160002060006101000a81548160ff0219169083151502179055508173ffffffffffffffffffffffffffffffffffffffff168373ffffffffffffffffffffffffffffffffffffffff167f17307eab39ab6107e8899845ad3d59bd9653f200f220920489ca2b5937696c31836040516121249190612b17565b60405180910390a3505050565b6060600082511415612154576040518060200160405280600081525090506122b1565b60006040518060600160405280604081526020016180a460409139905060006003600285516121839190614f7b565b61218d919061369a565b60046121999190613611565b905060006020826121aa9190614f7b565b67ffffffffffffffff8111156121c3576121c2612fc6565b5b6040519080825280601f01601f1916602001820160405280156121f55781602001600182028036833780820191505090505b509050818152600183018586518101602084015b81831015612270576003830192508251603f8160121c1685015160f81b8252600182019150603f81600c1c1685015160f81b8252600182019150603f8160061c1685015160f81b8252600182019150603f811685015160f81b825260018201915050612209565b60038951066001811461228a576002811461229a576122a5565b613d3d60f01b60028303526122a5565b603d60f81b60018303525b50505050508093505050505b919050565b6122c18484846115f3565b6122cd84848484612690565b61230c576040517f08c379a000000000000000000000000000000000000000000000000000000000815260040161230390617e67565b60405180910390fd5b50505050565b60007f80ac58cd000000000000000000000000000000000000000000000000000000007bffffffffffffffffffffffffffffffffffffffffffffffffffffffff1916827bffffffffffffffffffffffffffffffffffffffffffffffffffffffff191614806123dd57507f5b5e139f000000000000000000000000000000000000000000000000000000007bffffffffffffffffffffffffffffffffffffffffffffffffffffffff1916827bffffffffffffffffffffffffffffffffffffffffffffffffffffffff1916145b806123ed57506123ec82612818565b5b9050919050565b505050565b60606000600283600261240c9190613611565b6124169190614f7b565b67ffffffffffffffff81111561242f5761242e612fc6565b5b6040519080825280601f01601f1916602001820160405280156124615781602001600182028036833780820191505090505b5090507f30000000000000000000000000000000000000000000000000000000000000008160008151811061249957612498617cc4565b5b60200101907effffffffffffffffffffffffffffffffffffffffffffffffffffffffffffff1916908160001a9053507f7800000000000000000000000000000000000000000000000000000000000000816001815181106124fd576124fc617cc4565b5b60200101907effffffffffffffffffffffffffffffffffffffffffffffffffffffffffffff1916908160001a9053506000600184600261253d9190613611565b6125479190614f7b565b90505b60018111156125e7577f3031323334353637383961626364656600000000000000000000000000000000600f86166010811061258957612588617cc4565b5b1a60f81b8282815181106125a05761259f617cc4565b5b60200101907effffffffffffffffffffffffffffffffffffffffffffffffffffffffffffff1916908160001a905350600485901c9450806125e090617cf3565b905061254a565b506000841461262b576040517f08c379a000000000000000000000000000000000000000000000000000000000815260040161262290617ed3565b60405180910390fd5b8091505092915050565b61263f8383612882565b61264c6000848484612690565b61268b576040517f08c379a000000000000000000000000000000000000000000000000000000000815260040161268290617e67565b60405180910390fd5b505050565b60006126b18473ffffffffffffffffffffffffffffffffffffffff16612a50565b1561280b578373ffffffffffffffffffffffffffffffffffffffff1663150b7a026126da611454565b8786866040518563ffffffff1660e01b81526004016126fc9493929190617f3d565b6020604051808303816000875af192505050801561273857506040513d601f19601f820116820180604052508101906127359190617f9e565b60015b6127bb573d8060008114612768576040519150601f19603f3d011682016040523d82523d6000602084013e61276d565b606091505b506000815114156127b3576040517f08c379a00000000000000000000000000000000000000000000000000000000081526004016127aa90617e67565b60405180910390fd5b805181602001fd5b63150b7a0260e01b7bffffffffffffffffffffffffffffffffffffffffffffffffffffffff1916817bffffffffffffffffffffffffffffffffffffffffffffffffffffffff191614915050612810565b600190505b949350505050565b60007f01ffc9a7000000000000000000000000000000000000000000000000000000007bffffffffffffffffffffffffffffffffffffffffffffffffffffffff1916827bffffffffffffffffffffffffffffffffffffffffffffffffffffffff1916149050919050565b600073ffffffffffffffffffffffffffffffffffffffff168273ffffffffffffffffffffffffffffffffffffffff1614156128f2576040517f08c379a00000000000000000000000000000000000000000000000000000000081526004016128e990618017565b60405180910390fd5b6128fb816113e8565b1561293b576040517f08c379a000000000000000000000000000000000000000000000000000000000815260040161293290618083565b60405180910390fd5b612947600083836123f4565b6001600360008473ffffffffffffffffffffffffffffffffffffffff1673ffffffffffffffffffffffffffffffffffffffff16815260200190815260200160002060008282546129979190614f7b565b92505081905550816002600083815260200190815260200160002060006101000a81548173ffffffffffffffffffffffffffffffffffffffff021916908373ffffffffffffffffffffffffffffffffffffffff160217905550808273ffffffffffffffffffffffffffffffffffffffff16600073ffffffffffffffffffffffffffffffffffffffff167fddf252ad1be2c89b69c2b068fc378daa952ba7f163c4a11628f55a4df523b3ef60405160405180910390a45050565b600080823b905060008111915050919050565b6000604051905090565b600080fd5b600080fd5b60007fffffffff0000000000000000000000000000000000000000000000000000000082169050919050565b612aac81612a77565b8114612ab757600080fd5b50565b600081359050612ac981612aa3565b92915050565b600060208284031215612ae557612ae4612a6d565b5b6000612af384828501612aba565b91505092915050565b60008115159050919050565b612b1181612afc565b82525050565b6000602082019050612b2c6000830184612b08565b92915050565b600081519050919050565b600082825260208201905092915050565b60005b83811015612b6c578082015181840152602081019050612b51565b83811115612b7b576000848401525b50505050565b6000601f19601f8301169050919050565b6000612b9d82612b32565b612ba78185612b3d565b9350612bb7818560208601612b4e565b612bc081612b81565b840191505092915050565b60006020820190508181036000830152612be58184612b92565b905092915050565b6000819050919050565b612c0081612bed565b8114612c0b57600080fd5b50565b600081359050612c1d81612bf7565b92915050565b600060208284031215612c3957612c38612a6d565b5b6000612c4784828501612c0e565b91505092915050565b600073ffffffffffffffffffffffffffffffffffffffff82169050919050565b6000612c7b82612c50565b9050919050565b612c8b81612c70565b82525050565b6000602082019050612ca66000830184612c82565b92915050565b612cb581612c70565b8114612cc057600080fd5b50565b600081359050612cd281612cac565b92915050565b60008060408385031215612cef57612cee612a6d565b5b6000612cfd85828601612cc3565b9250506020612d0e85828601612c0e565b9150509250929050565b600080600060608486031215612d3157612d30612a6d565b5b6000612d3f86828701612cc3565b9350506020612d5086828701612cc3565b9250506040612d6186828701612c0e565b9150509250925092565b6000819050919050565b612d7e81612d6b565b8114612d8957600080fd5b50565b600081359050612d9b81612d75565b92915050565b600060208284031215612db757612db6612a6d565b5b6000612dc584828501612d8c565b91505092915050565b612dd781612d6b565b82525050565b6000602082019050612df26000830184612dce565b92915050565b60008060408385031215612e0f57612e0e612a6d565b5b6000612e1d85828601612d8c565b9250506020612e2e85828601612cc3565b9150509250929050565b600060208284031215612e4e57612e4d612a6d565b5b6000612e5c84828501612cc3565b91505092915050565b6000819050919050565b612e7881612e65565b82525050565b6000602082019050612e936000830184612e6f565b92915050565b60008060008060008060c08789031215612eb657612eb5612a6d565b5b6000612ec489828a01612cc3565b9650506020612ed589828a01612c0e565b9550506040612ee689828a01612c0e565b9450506060612ef789828a01612cc3565b9350506080612f0889828a01612c0e565b92505060a0612f1989828a01612c0e565b9150509295509295509295565b612f2f81612bed565b82525050565b6000602082019050612f4a6000830184612f26565b92915050565b612f5981612afc565b8114612f6457600080fd5b50565b600081359050612f7681612f50565b92915050565b60008060408385031215612f9357612f92612a6d565b5b6000612fa185828601612cc3565b9250506020612fb285828601612f67565b9150509250929050565b600080fd5b600080fd5b7f4e487b7100000000000000000000000000000000000000000000000000000000600052604160045260246000fd5b612ffe82612b81565b810181811067ffffffffffffffff8211171561301d5761301c612fc6565b5b80604052505050565b6000613030612a63565b905061303c8282612ff5565b919050565b600067ffffffffffffffff82111561305c5761305b612fc6565b5b61306582612b81565b9050602081019050919050565b82818337600083830152505050565b600061309461308f84613041565b613026565b9050828152602081018484840111156130b0576130af612fc1565b5b6130bb848285613072565b509392505050565b600082601f8301126130d8576130d7612fbc565b5b81356130e8848260208601613081565b91505092915050565b6000806000806080858703121561310b5761310a612a6d565b5b600061311987828801612cc3565b945050602061312a87828801612cc3565b935050604061313b87828801612c0e565b925050606085013567ffffffffffffffff81111561315c5761315b612a72565b5b613168878288016130c3565b91505092959194509250565b600060c0820190506131896000830189612f26565b6131966020830188612f26565b6131a36040830187612f26565b6131b06060830186612f26565b6131bd6080830185612c82565b6131ca60a0830184612c82565b979650505050505050565b600080604083850312156131ec576131eb612a6d565b5b60006131fa85828601612cc3565b925050602061320b85828601612cc3565b9150509250929050565b7f4e487b7100000000000000000000000000000000000000000000000000000000600052602260045260246000fd5b6000600282049050600182168061325c57607f821691505b602082108114156132705761326f613215565b5b50919050565b7f4552433732313a20617070726f76656420717565727920666f72206e6f6e657860008201527f697374656e7420746f6b656e0000000000000000000000000000000000000000602082015250565b60006132d2602c83612b3d565b91506132dd82613276565b604082019050919050565b60006020820190508181036000830152613301816132c5565b9050919050565b7f4552433732313a20617070726f76616c20746f2063757272656e74206f776e6560008201527f7200000000000000000000000000000000000000000000000000000000000000602082015250565b6000613364602183612b3d565b915061336f82613308565b604082019050919050565b6000602082019050818103600083015261339381613357565b9050919050565b7f4552433732313a20617070726f76652063616c6c6572206973206e6f74206f7760008201527f6e6572206e6f7220617070726f76656420666f7220616c6c0000000000000000602082015250565b60006133f6603883612b3d565b91506134018261339a565b604082019050919050565b60006020820190508181036000830152613425816133e9565b9050919050565b7f4552433732313a207472616e736665722063616c6c6572206973206e6f74206f60008201527f776e6572206e6f7220617070726f766564000000000000000000000000000000602082015250565b6000613488603183612b3d565b91506134938261342c565b604082019050919050565b600060208201905081810360008301526134b78161347b565b9050919050565b7f416363657373436f6e74726f6c3a2063616e206f6e6c792072656e6f756e636560008201527f20726f6c657320666f722073656c660000000000000000000000000000000000602082015250565b600061351a602f83612b3d565b9150613525826134be565b604082019050919050565b600060208201905081810360008301526135498161350d565b9050919050565b7f4552433732314275726e61626c653a2063616c6c6572206973206e6f74206f7760008201527f6e6572206e6f7220617070726f76656400000000000000000000000000000000602082015250565b60006135ac603083612b3d565b91506135b782613550565b604082019050919050565b600060208201905081810360008301526135db8161359f565b9050919050565b7f4e487b7100000000000000000000000000000000000000000000000000000000600052601160045260246000fd5b600061361c82612bed565b915061362783612bed565b9250817fffffffffffffffffffffffffffffffffffffffffffffffffffffffffffffffff04831182151516156136605761365f6135e2565b5b828202905092915050565b7f4e487b7100000000000000000000000000000000000000000000000000000000600052601260045260246000fd5b60006136a582612bed565b91506136b083612bed565b9250826136c0576136bf61366b565b5b828204905092915050565b60006136d682612bed565b91506136e183612bed565b9250828210156136f4576136f36135e2565b5b828203905092915050565b600081905092915050565b7f3c73766720636c6173733d22737667426f6479222077696474683d223330302260008201527f206865696768743d22333030222076696577426f783d2230203020333030203360208201527f30302220786d6c6e733d22687474703a2f2f7777772e77332e6f72672f32303060408201527f302f737667223e00000000000000000000000000000000000000000000000000606082015250565b60006137b26067836136ff565b91506137bd8261370a565b606782019050919050565b7f3c646566733e0000000000000000000000000000000000000000000000000000600082015250565b60006137fe6006836136ff565b9150613809826137c8565b600682019050919050565b7f3c7374796c653e00000000000000000000000000000000000000000000000000600082015250565b600061384a6007836136ff565b915061385582613814565b600782019050919050565b7f40696d706f72742075726c282268747470733a2f2f666f6e74732e676f6f676c60008201527f65617069732e636f6d2f637373323f66616d696c793d4f72626974726f6e222960208201527f3b00000000000000000000000000000000000000000000000000000000000000604082015250565b60006138e26041836136ff565b91506138ed82613860565b604182019050919050565b7f3c2f7374796c653e000000000000000000000000000000000000000000000000600082015250565b600061392e6008836136ff565b9150613939826138f8565b600882019050919050565b7f3c2f646566733e00000000000000000000000000000000000000000000000000600082015250565b600061397a6007836136ff565b915061398582613944565b600782019050919050565b7f3c7374796c653e3c215b43444154415b73766720746578747b7374726f6b653a60008201527f6e6f6e657d5d5d3e3c2f7374796c653e00000000000000000000000000000000602082015250565b60006139ec6030836136ff565b91506139f782613990565b603082019050919050565b7f3c7374796c6520747970653d22746578742f637373223e000000000000000000600082015250565b6000613a386017836136ff565b9150613a4382613a02565b601782019050919050565b7f2e7374307b66696c6c3a234646464646463b7d2e7374317b646973706c61793a60008201527f6e6f6e653b66696c6c3a6e6f6e653b7374726f6b653a234646464646463b737460208201527f726f6b652d77696474683a302e353b7d00000000000000000000000000000000604082015250565b6000613ad06050836136ff565b9150613adb82613a4e565b605082019050919050565b7f2e7374327b66696c6c3a234230454645423b7d2e7374337b66696c6c3a23454460008201527f464641393b7d2e7374347b646973706c61793a6e6f6e653b7d2e7374357b666960208201527f6c6c3a234646464646463b7d0000000000000000000000000000000000000000604082015250565b6000613b68604c836136ff565b9150613b7382613ae6565b604c82019050919050565b7f2e737432307b66696c6c3a234646423033313b7d202e737432317b66696c6c3a60008201527f234646413330303b7d202e737432327b66696c6c3a234535384430303b7d202e60208201527f737432337b66696c6c3a233244313930423b7d202e737432347b66696c6c3a2360408201527f3344323531353b7d200000000000000000000000000000000000000000000000606082015250565b6000613c266069836136ff565b9150613c3182613b7e565b606982019050919050565b7f2e737432357b66696c6c3a233346323831393b7d2e737432367b66696c6c3a2360008201527f3231313230373b7d202e737432377b66696c6c3a233443333332323b7d202e7360208201527f7432387b66696c6c3a233335314631303b7d202e737432397b66696c6c3a233560408201527f42343132463b7d00000000000000000000000000000000000000000000000000606082015250565b6000613ce46067836136ff565b9150613cef82613c3c565b606782019050919050565b7f2e737433307b66696c6c3a233536334432443b7d202e737433317b66696c6c3a60008201527f233636344333413b7d202e737433327b66696c6c3a233638343731463b7d202e60208201527f737433337b66696c6c3a234639443339423b7d202e737433347b66696c6c3a2360408201527f3238313630423b7d202e737433357b66696c6c3a6e6f6e653b7d000000000000606082015250565b6000613da2607a836136ff565b9150613dad82613cfa565b607a82019050919050565b7f3c672069643d22426173655f4c61796572223e00000000000000000000000000600082015250565b6000613dee6013836136ff565b9150613df982613db8565b601382019050919050565b7f3c7061746820643d224d31302c306832383063352e352c302c31302c342e352c60008201527f31302c31307632383063302c352e352d342e352c31302d31302c31304831306360208201527f2d352e352c302d31302d342e352d31302d313056313043302c342e352c342e3560408201527f2c302c31302c307a222f3e000000000000000000000000000000000000000000606082015250565b6000613eac606b836136ff565b9150613eb782613e04565b606b82019050919050565b7f3c7265637420793d2236342e322220636c6173733d227374302220776964746860008201527f3d2233303022206865696768743d223131372e34222f3e000000000000000000602082015250565b6000613f1e6037836136ff565b9150613f2982613ec2565b603782019050919050565b7f3c7265637420783d22302220793d223138372e392220636c6173733d2273743260008201527f222077696474683d2233303022206865696768743d2235332e39222f3e000000602082015250565b6000613f90603d836136ff565b9150613f9b82613f34565b603d82019050919050565b7f3c7265637420783d22302220793d223234342e352220636c6173733d2273743360008201527f222077696474683d223330302e3522206865696768743d2234352e34222f3e00602082015250565b6000614002603f836136ff565b915061400d82613fa6565b603f82019050919050565b7f3c7265637420783d223232362e392220793d2238362e382220636c6173733d2260008201527f737434222077696474683d2235362e3322206865696768743d223231322e372260208201527f2f3e000000000000000000000000000000000000000000000000000000000000604082015250565b600061409a6042836136ff565b91506140a582614018565b604282019050919050565b7f3c6c696e6520636c6173733d22737435222078313d22323335222079313d223960008201527f30222078323d22323335222079323d22333030222f3e00000000000000000000602082015250565b600061410c6036836136ff565b9150614117826140b0565b603682019050919050565b7f3c6c696e6520636c6173733d22737436222078313d22323435222079313d223960008201527f30222078323d22323435222079323d22333030222f3e00000000000000000000602082015250565b600061417e6036836136ff565b915061418982614122565b603682019050919050565b7f3c6c696e6520636c6173733d22737437222078313d22323535222079313d223960008201527f30222078323d22323535222079323d22333030222f3e00000000000000000000602082015250565b60006141f06036836136ff565b91506141fb82614194565b603682019050919050565b7f3c6c696e6520636c6173733d22737438222078313d223237352e32222079313d60008201527f223930222078323d223237352e32222079323d22333030222f3e000000000000602082015250565b6000614262603a836136ff565b915061426d82614206565b603a82019050919050565b7f3c7465787420783d2235302220793d2234302220636c6173733d22737430222060008201527f666f6e742d73697a653d22333070782220666f6e742d66616d696c793d224f7260208201527f626974726f6e223e454c49584952204e46543c2f746578743e00000000000000604082015250565b60006142fa6059836136ff565b915061430582614278565b605982019050919050565b7f3c7465787420783d2231342220793d223231302220666f6e742d66616d696c7960008201527f3d224f72626974726f6e223e456c69786972205072696365202d203c2f74657860208201527f743e000000000000000000000000000000000000000000000000000000000000604082015250565b60006143926042836136ff565b915061439d82614310565b604282019050919050565b7f3c7465787420783d223132342220793d223231302220666f6e742d66616d696c60008201527f793d224f72626974726f6e223e00000000000000000000000000000000000000602082015250565b6000614404602d836136ff565b915061440f826143a8565b602d82019050919050565b600061442582612b32565b61442f81856136ff565b935061443f818560208601612b4e565b80840191505092915050565b7f203c2f746578743e000000000000000000000000000000000000000000000000600082015250565b60006144816008836136ff565b915061448c8261444b565b600882019050919050565b7f3c7465787420783d2231342220793d223236352220666f6e742d66616d696c7960008201527f3d224f72626974726f6e223e416c6368656d6973743c2f746578743e00000000602082015250565b60006144f3603c836136ff565b91506144fe82614497565b603c82019050919050565b7f3c7465787420783d2231342220793d22323830222020666f6e742d73697a653d60008201527f22377078222020666f6e742d66616d696c793d224f72626974726f6e223e0000602082015250565b6000614565603e836136ff565b915061457082614509565b603e82019050919050565b7f3c6c696e6520636c6173733d22737439222078313d223236352e32222079313d60008201527f223930222078323d223236352e32222079323d22333030222f3e000000000000602082015250565b60006145d7603a836136ff565b91506145e28261457b565b603a82019050919050565b7f3c2f673e00000000000000000000000000000000000000000000000000000000600082015250565b60006146236004836136ff565b915061462e826145ed565b600482019050919050565b7f3c2f7376673e0000000000000000000000000000000000000000000000000000600082015250565b600061466f6006836136ff565b915061467a82614639565b600682019050919050565b6000614690826137a5565b915061469b826137f1565b91506146a68261383d565b91506146b1826138d5565b91506146bc82613921565b91506146c78261396d565b91506146d2826139df565b91506146dd82613a2b565b91506146e882613ac3565b91506146f382613b5b565b91506146fe82613c19565b915061470982613cd7565b915061471482613d95565b915061471f82613921565b915061472a82613de1565b915061473582613e9f565b915061474082613f11565b915061474b82613f83565b915061475682613ff5565b91506147618261408d565b915061476c826140ff565b915061477782614171565b9150614782826141e3565b915061478d82614255565b9150614798826142ed565b91506147a382614385565b91506147ae826143f7565b91506147ba828661441a565b91506147c582614474565b91506147d0826144e6565b91506147db82614558565b91506147e7828561441a565b91506147f282614474565b91506147fd826145ca565b915061480882614616565b9150614814828461441a565b915061481f82614662565b9150819050949350505050565b600081519050919050565b600081905092915050565b600061484d8261482c565b6148578185614837565b9350614867818560208601612b4e565b80840191505092915050565b600061487f8284614842565b915081905092915050565b61489381612e65565b811461489e57600080fd5b50565b6000815190506148b08161488a565b92915050565b6000602082840312156148cc576148cb612a6d565b5b60006148da848285016148a1565b91505092915050565b7f4f7261636c65207072696365206973206f7574206f662072616e676500000000600082015250565b6000614919601c83612b3d565b9150614924826148e3565b602082019050919050565b600060208201905081810360008301526149488161490c565b9050919050565b7f4552433732313a206f776e657220717565727920666f72206e6f6e657869737460008201527f656e7420746f6b656e0000000000000000000000000000000000000000000000602082015250565b60006149ab602983612b3d565b91506149b68261494f565b604082019050919050565b600060208201905081810360008301526149da8161499e565b9050919050565b7f4552433732313a2062616c616e636520717565727920666f7220746865207a6560008201527f726f206164647265737300000000000000000000000000000000000000000000602082015250565b6000614a3d602a83612b3d565b9150614a48826149e1565b604082019050919050565b60006020820190508181036000830152614a6c81614a30565b9050919050565b7f4552433732314d657461646174613a2055524920717565727920666f72206e6f60008201527f6e6578697374656e7420746f6b656e0000000000000000000000000000000000602082015250565b6000614acf602f83612b3d565b9150614ada82614a73565b604082019050919050565b60006020820190508181036000830152614afe81614ac2565b9050919050565b7f20456c7869722053706167797269612023000000000000000000000000000000600082015250565b6000614b3b6011836136ff565b9150614b4682614b05565b601182019050919050565b6000614b5c82614b2e565b9150614b68828461441a565b915081905092915050565b7f7b226e616d65223a220000000000000000000000000000000000000000000000600082015250565b6000614ba96009836136ff565b9150614bb482614b73565b600982019050919050565b7f222c20226465736372697074696f6e223a220000000000000000000000000000600082015250565b6000614bf56012836136ff565b9150614c0082614bbf565b601282019050919050565b7f222c2022696d616765223a202200000000000000000000000000000000000000600082015250565b6000614c41600d836136ff565b9150614c4c82614c0b565b600d82019050919050565b7f646174613a696d6167652f7376672b786d6c3b6261736536342c000000000000600082015250565b6000614c8d601a836136ff565b9150614c9882614c57565b601a82019050919050565b7f227d000000000000000000000000000000000000000000000000000000000000600082015250565b6000614cd96002836136ff565b9150614ce482614ca3565b600282019050919050565b6000614cfa82614b9c565b9150614d06828661441a565b9150614d1182614be8565b9150614d1d828561441a565b9150614d2882614c34565b9150614d3382614c80565b9150614d3f828461441a565b9150614d4a82614ccc565b9150819050949350505050565b7f646174613a6170706c69636174696f6e2f6a736f6e3b6261736536342c000000600082015250565b6000614d8d601d836136ff565b9150614d9882614d57565b601d82019050919050565b6000614dae82614d80565b9150614dba828461441a565b915081905092915050565b7f4552433732313a206f70657261746f7220717565727920666f72206e6f6e657860008201527f697374656e7420746f6b656e0000000000000000000000000000000000000000602082015250565b6000614e21602c83612b3d565b9150614e2c82614dc5565b604082019050919050565b60006020820190508181036000830152614e5081614e14565b9050919050565b7f4552433732313a207472616e73666572206f6620746f6b656e2074686174206960008201527f73206e6f74206f776e0000000000000000000000000000000000000000000000602082015250565b6000614eb3602983612b3d565b9150614ebe82614e57565b604082019050919050565b60006020820190508181036000830152614ee281614ea6565b9050919050565b7f4552433732313a207472616e7366657220746f20746865207a65726f2061646460008201527f7265737300000000000000000000000000000000000000000000000000000000602082015250565b6000614f45602483612b3d565b9150614f5082614ee9565b604082019050919050565b60006020820190508181036000830152614f7481614f38565b9050919050565b6000614f8682612bed565b9150614f9183612bed565b9250827fffffffffffffffffffffffffffffffffffffffffffffffffffffffffffffffff03821115614fc657614fc56135e2565b5b828201905092915050565b7f416363657373436f6e74726f6c3a206163636f756e7420000000000000000000600082015250565b60006150076017836136ff565b915061501282614fd1565b601782019050919050565b7f206973206d697373696e6720726f6c6520000000000000000000000000000000600082015250565b60006150536011836136ff565b915061505e8261501d565b601182019050919050565b600061507482614ffa565b9150615080828561441a565b915061508b82615046565b9150615097828461441a565b91508190509392505050565b7f3c672069643d2254726561737572655f43686573745f436c6f736564223e0000600082015250565b60006150d9601e836136ff565b91506150e4826150a3565b601e82019050919050565b7f3c672069643d22673431303522207472616e73666f726d3d226d61747269782860008201527f302e38303938383034382c302c302c302e38303938383034382c2d3633392e3560208201527f303833372c2d3630342e313835313729223e0000000000000000000000000000604082015250565b60006151716052836136ff565b915061517c826150ef565b605282019050919050565b7f3c67207472616e73666f726d3d227472616e736c617465283831302c2d31323060008201527f29222069643d22636f696e2d3039223e00000000000000000000000000000000602082015250565b60006151e36030836136ff565b91506151ee82615187565b603082019050919050565b7f3c67207472616e73666f726d3d226d617472697828302e33383439363630312c60008201527f302c302c302e333438393031352c3130332e36313233372c3935372e3930363160208201527f29222069643d226733313935223e000000000000000000000000000000000000604082015250565b600061527b604e836136ff565b9150615286826151f9565b604e82019050919050565b7f3c67207472616e73666f726d3d226d617472697828312e333632383937322c3060008201527f2c302c312c2d313334372e3139362c2d3630302e353037323929222069643d2260208201527f6733313937223e3c7061746820643d226d20313037342e323830362c3630362e60408201527f30323837362063202d34322e333033332c30202d37362e35383533322c35352e60608201527f3934323837202d37362e35383533322c3132342e393634313320302c36392e3060808201527f323632312033342e32383530322c3132342e393832372037362e35383533322c60a08201527f3132342e3938323720322e303437322c3020342e303735392c2d302e3132393760c08201527f3120362e303832372c2d302e3338363935202d33392e343537352c2d352e303560e08201527f383332202d37302e353134332c2d35382e3931353931202d37302e353134332c6101008201527f2d3132342e353938383520302c2d36352e36383239342033312e303537352c2d6101208201527f3131392e35323230322037302e353134332c2d3132342e3538303237202d322e6101408201527f303036372c2d302e3235373236202d342e303335372c2d302e3338363936202d6101608201527f362e303832372c2d302e3338363936207a222f3e00000000000000000000000061018082015250565b6000615495610194836136ff565b91506154a082615291565b61019482019050919050565b7f3c7061746820643d226d20313036332e3233392c3630372e333232373320632060008201527f2d342e383932382c312e31353333202d392e363333392c332e3036313735202d60208201527f31342e313831342c352e363439353120332e323432362c302e3331323720372e60408201527f313039352c302e353030312031312e323736342c302e353232333920342e313960608201527f30352c2d322e343739353420382e353438332c2d342e33383835352031332e3060808201527f3433312c2d352e3634393532202d322e393431312c2d302e3238373634202d3660a08201527f2e343030372c2d302e3437313332202d31302e313338312c2d302e353232333860c08201527f207a206d202d31342e313130312c31342e33313732362063202d342e3639323560e08201527f2c30202d392e303231312c302e3231373836202d31322e353638382c302e35386101008201527f303432202d312e353131372c312e3339383631202d322e393839332c322e38376101208201527f323734202d342e343334382c342e343330353820322e3830382c302e353038346101408201527f3620362e373037362c302e383835362031312e313933332c312e3036343136206101608201527f312e393437372c2d322e313639323920332e393532362c2d342e3230303720366101808201527f2e303233362c2d362e3037353136202d302e3037322c2d3130652d35202d302e6101a08201527f313431352c30202d302e323133342c30207a206d202d31332e3339392c31342e6101c08201527f33353632362063202d342e3433362c302e30363434202d382e343638322c302e6101e08201527f3332373338202d31312e373033332c302e3731353833202d302e393835312c316102008201527f2e3339393335202d312e393533342c322e3833353936202d322e383933322c346102208201527f2e333134353620322e383937312c302e353039313420362e393132392c302e386102408201527f373839372031312e353031352c312e303434373720312e3330362c2d322e31306102608201527f34303320322e363539362c2d342e313237353820342e303535342c2d362e30376102808201527f353136202d302e333139332c302e303032202d302e363435312c2d302e3030346102a08201527f202d302e393630352c30207a206d202d392e323234382c31342e3331373236206102c08201527f63202d342e313334342c302e3036202d372e393232362c302e3239303639202d6102e08201527f31312e303339332c302e3633383434202d302e373732332c312e3530393439206103008201527f2d312e353132332c332e3035353434202d322e323431312c342e3632343132206103208201527f332e313037362c302e343534363420372e313832382c302e37373538382031316103408201527f2e373530382c302e383839393920302e393537312c2d322e303937383420312e6103608201527f393432312c2d342e313538393120322e393736322c2d362e3135323535202d306103808201527f2e343834342c2d302e303032202d302e393731352c2d302e303037202d312e346103a08201527f3436362c30207a206d202d342e393638342c31342e33313732362063202d342e6103c08201527f363332392c302e30313434202d382e383938352c302e32333232202d31322e336103e08201527f37392c302e3539393737202d302e353937342c312e3537313737202d312e31376104008201527f362c332e3136313639202d312e373331322c342e3737383920332e323235382c6104208201527f302e343230353720372e333236352c302e37313230362031312e383830392c306104408201527f2e373933323320302e373037372c2d322e303937303420312e343531312c2d346104608201527f2e313530343920322e323239322c2d362e3137313934207a206d202d372e30376104808201527f38372c31342e33333634352063202d332e353739332c30202d362e393439342c6104a08201527f302e3132383435202d392e393234352c302e3334383236202d302e343934382c6104c08201527f312e3737353237202d302e393534352c332e3537393436202d312e333939322c6104e08201527f352e333938303220332e323938362c302e323930323420372e313637322c302e6105008201527f3434352031312e333233392c302e34343520302e323339382c3020302e3437336105208201527f342c3130652d3420302e373131342c3020302e353034322c2d322e30383539366105408201527f20312e303432362c2d342e313432353720312e363132362c2d362e31373139336105608201527f202d302e373633332c2d302e30313136202d312e353339322c2d302e303139336105808201527f202d322e3332342c2d302e30313933207a206d202d352e353834392c31342e336105a08201527f333634352063202d322e373035372c30202d352e323832352c302e30383332206105c08201527f2d372e363731382c302e3231323832202d302e333631352c312e3837393336206105e08201527f2d302e363838322c332e3739313039202d302e3939362c352e373037353920326106008201527f2e363537312c302e313636313220352e353833372c302e323730383720382e366106208201527f3637382c302e323730383720312e3137332c3020322e333136312c2d302e30316106408201527f3320332e343338362c2d302e3033383720302e333237342c2d322e30353435366106608201527f20302e363930312c2d342e303832353120312e3037392c2d362e3039343534206106808201527f2d312e343538352c2d302e30343433202d322e393636392c2d302e303538202d6106a08201527f342e353137352c2d302e303538207a206d202d362e363837362c31342e3333366106c08201527f34352063202d312e303834312c302e30313537202d322e3132332c302e3035386106e08201527f37202d332e31353430342c302e30393637202d302e32323834322c312e3938306107008201527f3135202d302e34323233382c332e3936363438202d302e35393238362c352e396107208201527f3738333920312e383934322c302e3037373420332e383834372c302e313136306107408201527f3920352e393532362c302e313136303920322e313533322c3020342e323235346107608201527f2c2d302e3035313820362e313839332c2d302e313335343420302e313638322c6107808201527f2d312e393831393420302e333638342c2d332e393439393520302e353932392c6107a08201527f2d352e393031202d322e313336392c2d302e3130303735202d342e343130362c6107c08201527f2d302e3135343738202d362e373832342c2d302e3135343738202d302e3734376107e08201527f362c30202d312e343737332c2d302e30313036202d322e323035352c30207a206108008201527f6d20322e323035352c31342e33313732362063202d322e323635312c30202d346108208201527f2e34343534382c302e30343332202d362e34393738342c302e3133353433202d6108408201527f302e303834342c312e3935373638202d302e31333734372c332e39313935202d6108608201527f302e31363630312c352e39303120322e31303135312c302e3039373220342e336108808201527f333631352c302e313534373920362e36363336352c302e313534373920312e396108a08201527f3031312c3020332e373332342c2d302e30333120352e343930312c2d302e30396108c08201527f363720302e3032392c2d322e303134353720302e30382c2d342e3030373834206108e08201527f302e3136362c2d352e3939373737202d312e383037312c2d302e30363938202d6109008201527f332e363935312c2d302e30393637202d352e363535392c2d302e30393637207a6109208201527f206d20302c31342e33333634352063202d322e333039372c30202d342e3532386109408201527f39352c302e30353931202d362e36313636312c302e313534373820302e3035326109608201527f322c312e393739373220302e313239322c332e393436323420302e32333731356109808201527f2c352e39303120322e30313739362c302e3038383820342e31353738362c302e6109a08201527f313335343420362e33373930362c302e313335343420322e3030382c3020332e6109c08201527f393430352c2d302e30343320352e373836342c2d302e3131363039202d302e316109e08201527f3039342c2d312e3937383437202d302e313936372c2d332e3937343437202d30610a008201527f2e3234392c2d352e3937383339202d312e373731372c2d302e30363639202d33610a208201527f2e363139322c2d302e30393637202d352e353337352c2d302e30393637207a20610a408201527f6d20302c31342e33333634352063202d312e393930382c30202d332e39303738610a608201527f2c302e30343432202d352e37333839372c302e313136303920302e3139363035610a808201527f2c322e303134383820302e34323135352c342e303136313420302e3637353839610aa08201527f2c352e393937373720312e36323735382c302e3035353820332e33313537382c610ac08201527f302e3037373420352e30363331382c302e3037373420322e343837362c302034610ae08201527f2e383634382c2d302e3036333820372e303930392c2d302e3137343133202d30610b008201527f2e323438362c2d312e3934343535202d302e343833332c2d332e393035313320610b208201527f2d302e363735382c2d352e3838313638202d322e303238392c2d302e30383938610b408201527f202d342e313830372c2d302e3133353434202d362e343134382c2d302e313335610b608201527f3434207a206d202d322e323035352c31342e33333634352063202d302e353534610b808201527f332c302e303038202d312e303731342c302e30323437202d312e363132362c30610ba08201527f2e3033383720302e333536382c322e3036323820302e373432392c342e313135610bc08201527f313420312e3136322c362e313333313720302e383731372c302e303135332031610be08201527f2e373535372c302e3031393320322e363536312c302e3031393320332e333932610c008201527f332c3020362e35392c2d302e313130373820392e343530322c2d302e33303935610c208201527f36202d302e333833372c2d312e3836313334202d302e373438332c2d332e3733610c408201527f303739202d312e3037392c2d352e36333032202d322e353737332c2d302e3135610c608201527f343531202d352e343033322c2d302e3235313532202d382e333731312c2d302e610c808201527f3235313532202d302e373437362c30202d312e343737332c2d302e3031303620610ca08201527f2d322e323035352c30207a206d20382e333539342c31342e3331373236206320610cc08201527f2d322e343037352c30202d342e373133382c302e30353131202d362e38373733610ce08201527f2c302e313534373820302e353136342c322e303031383820312e303538392c33610d008201527f2e393932353520312e363336342c352e393339373620312e363831382c302e30610d208201527f35393920332e343239352c302e3039363720352e323430372c302e3039363720610d408201527f322e343136342c3020342e373239372c2d302e3035303420362e393031322c2d610d608201527f302e3135343738202d302e353737392c2d312e3935303439202d312e31313937610d808201527f2c2d332e3933343335202d312e363336342c2d352e3933393736202d312e3638610da08201527f39352c2d302e30363034202d332e343434372c2d302e30393637202d352e3236610dc08201527f34362c2d302e30393637207a206d20322e3234312c31342e3333363435206320610de08201527f2d312e363430352c30202d332e32332c302e303238202d342e373636342c302e610e008201527f3037373420302e373336362c322e303638363220312e3531382c342e31303333610e208201527f3820322e3332342c362e303934353420302e383032322c302e3031323920312e610e408201527f363136362c302e3031393320322e343432362c302e3031393320332e34343835610e608201527f2c3020362e363938322c2d302e3132333920392e353932352c2d302e33323839610e808201527f31202d302e373437352c2d312e38353833202d312e343730372c2d332e373433610ea08201527f3335202d322e3135382c2d352e3636383833202d322e333232352c2d302e3132610ec08201527f313538202d342e383138312c2d302e3139333437202d372e343334372c2d302e610ee08201527f3139333437207a206d2031302e303636382c31342e33333634362063202d332e610f008201527f313330362c30202d362e303937352c302e31202d382e373836322c302e323730610f208201527f383620302e393537392c312e393836313520312e393539362c332e3931373839610f408201527f20322e393838312c352e3830343320312e383439342c302e3037333420332e37610f608201527f3836312c302e313136303820352e373938312c302e313136303820322e323038610f808201527f372c3020342e333335382c2d302e3034373620362e333433382c2d302e313335610fa08201527f3433202d312e303634392c2d312e3935343038202d322e303933372c2d332e39610fc08201527f35363231202d332e303832392c2d362e3031373135202d312e303636312c2d30610fe08201527f2e30323331202d322e313439362c2d302e30333837202d332e323630372c2d306110008201527f2e30333837207a206d20352e353834392c31342e33313732352063202d322e326110208201527f3137322c30202d342e333532382c302e30343639202d362e333637332c302e316110408201527f3335343420312e333736382c322e303935323420322e383030312c342e3130396110608201527f363220342e323638372c362e303336343620302e363930332c302e30303920316110808201527f2e333931312c302e3031393320322e303938382c302e3031393320332e3533376110a08201527f312c3020362e3836372c2d302e313133393220392e383137392c2d302e3332386110c08201527f3931202d312e333931342c2d312e3834303239202d322e373437312c2d332e376110e08201527f35343036202d342e303535352c2d352e3734363232202d312e383338382c2d306111008201527f2e30373235202d332e373633322c2d302e3131363039202d352e373632382c2d6111208201527f302e3131363039207a206d2031332e393931372c31342e33333634362063202d6111408201527f332e313439322c30202d362e313332342c302e303938202d382e383333362c306111608201527f2e323730383620322e3037342c322e313236383820342e323133322c342e30396111808201527f39393720362e343134372c352e39303120302e373934352c302e3031323620316111a08201527f2e363031312c302e3031393320322e343138392c302e3031393320332e3336396111c08201527f2c3020362e353436382c2d302e313133333420392e333931312c2d302e3330396111e08201527f3536202d322e313536372c2d312e3738373534202d342e323633342c2d332e376112008201527f34313831202d362e323936342c2d352e3834323939202d312e303133322c2d306112208201527f2e30323038202d322e303431352c2d302e30333837202d332e303934382c2d306112408201527f2e30333837207a206d2031382e373232392c31342e33333634352063202d322e6112608201527f383136392c30202d352e343939322c302e30393233202d372e393638312c302e6112808201527f323332313720362e373032332c332e31323736332031332e373837392c342e376112a08201527f393832322032312e313036312c342e373938323220312e373135332c3020332e6112c08201527f343131332c2d302e303920352e303938382c2d302e323730383720302e3233356112e08201527f382c2d302e3035323620302e343632312c2d302e313030323420302e363735396113008201527f2c2d302e3135343738202d352e313832342c2d302e3639383434202d31302e326113208201527f3230352c2d322e3234383335202d31352e303539312c2d342e3534363637202d6113408201527f312e323533312c2d302e30333232202d322e3533362c2d302e30353832202d336113608201527f2e383533352c2d302e30353832207a222069643d2270617468333230312220736113808201527f74796c653d2266696c6c3a236338396333313b66696c6c2d72756c653a6576656113a08201527f6e6f646422202f3e0000000000000000000000000000000000000000000000006113c082015250565b6000616cee6113c8836136ff565b9150616cf9826154ac565b6113c882019050919050565b7f3c7061746820643d226d203233322e30363039322c3132392e3938363034206360008201527f20302c36392e3032333333202d34362e303830382c3132342e3937383739202d60208201527f3130322e393233352c3132342e3937383739202d35362e3834323539352c302060408201527f2d3130322e3932333439352c2d35352e3935353436202d3130322e393233343960608201527f352c2d3132342e393738373920302c2d36392e3032333333332034362e30383060808201527f392c2d3132342e39373837393333203130322e3932333439352c2d3132342e3960a08201527f3738373933332035362e383432372c30203130322e393233352c35352e39353560c08201527f34363033203130322e393233352c3132342e39373837393333207a222073747960e08201527f6c653d22636f6c6f723a233030303030303b66696c6c3a2365656431373522206101008201527f69643d22706174683332303322202f3e0000000000000000000000000000000061012082015250565b6000616e94610130836136ff565b9150616e9f82616d05565b61013082019050919050565b7f3c7061746820643d226d203232392e34363133322c3133302e3930353331206360008201527f20302c36372e3235393237202d34342e393033322c3132312e3738343635202d60208201527f3130302e3239332c3132312e3738343635202d35352e3338393839352c30202d60408201527f3130302e3239333039352c2d35342e3532353338202d3130302e32393330393560608201527f2c2d3132312e373834363520302c2d36372e3235393236332034342e3930333260808201527f2c2d3132312e37383436343333203130302e3239333039352c2d3132312e373860a08201527f34363433332035352e333839382c30203130302e3239332c35342e353235333860c08201527f3033203130302e3239332c3132312e37383436343333207a22207374796c653d60e08201527f22636f6c6f723a233030303030303b66696c6c3a23633839633331222069643d6101008201527f22706174683332303522202f3e0000000000000000000000000000000000000061012082015250565b600061703a61012d836136ff565b915061704582616eab565b61012d82019050919050565b7f3c7061746820643d226d203232362e32323832322c3133312e3138363839206360008201527f20302c36352e3131303632202d34332e343638372c3131372e3839343135202d60208201527f39372e303839312c3131372e3839343135202d35332e3632303339352c30202d60408201527f39372e3038393139352c2d35322e3738333533202d39372e3038393139352c2d60608201527f3131372e383934313520302c2d36352e3131303632332034332e343638382c2d60808201527f3131372e3839343134332039372e3038393139352c2d3131372e38393431343360a08201527f2035332e363230342c302039372e303839312c35322e37383335322039372e3060c08201527f3839312c3131372e383934313433207a22207374796c653d22636f6c6f723a2360e08201527f3030303030303b66696c6c3a23656263383539222069643d22706174683332306101008201527f3722202f3e00000000000000000000000000000000000000000000000000000061012082015250565b60006171e0610125836136ff565b91506171eb82617051565b61012582019050919050565b7f3c7061746820643d226d2035382e3538303732352c34392e313734323737206360008201527f202d33362e383236312c34372e3332363531202d33362e313336322c3132312e60208201527f36383839363320322e383338362c3136362e3430383333332031302e3532363260408201527f2c31322e30373732372032312e383732332c32322e32333538372033352e373860608201527f39312c32362e3735353438202d382e353437392c2d352e3337363938202d313560808201527f2e383134362c2d31322e3736333838202d32332e313632322c2d32312e31393460a08201527f35202d34322e323830372c2d34382e35313039202d34342e323434322c2d313260c08201527f392e333533373233202d342e333934382c2d3138302e35363135333320332e3860e08201527f3436372c2d342e393433353820382e313530372c2d382e35333833352031322e6101008201527f343439392c2d31322e3536363939202d382e343432342c352e3731343237202d6101208201527f31362e353330342c31322e3137363333202d32332e353230372c32312e3135396101408201527f3231207a22207374796c653d22636f6c6f723a233030303030303b66696c6c3a6101608201527f23643261613438222069643d22706174683332303922202f3e0000000000000061018082015250565b60006173fb610199836136ff565b9150617406826171f7565b61019982019050919050565b7f3c7061746820643d226d203138382e30333538322c3232352e3235393533206360008201527f2034322e363932322c2d33392e33393535322035312e303132322c2d3131332e60208201527f33353535342031382e353638342c2d3136352e313934383533202d382e37363260408201527f312c2d31342e3030303839202d31392e363135362c2d32342e3934313434202d60608201527f33312e363130372c2d33322e363939303720372e373130372c362e393938353860808201527f2031342e373735392c31352e33393236382032302e383932382c32352e31363660a08201527f31382033352e313935352c35362e3233383139332032362e323639382c31333660c08201527f2e333836393833202d31392e393237322c3137392e303133373133202d342e3460e08201527f3539342c342e31313532202d392e313032362c372e3732323335202d31332e386101008201527f3835312c31302e383434353920392e3039372c2d332e39363439332031372e386101208201527f3538352c2d392e36353039312032352e393632342c2d31372e3132393332207a6101408201527f22207374796c653d22636f6c6f723a233030303030303b66696c6c3a236637656101608201527f353837222069643d22706174683332313122202f3e000000000000000000000061018082015250565b6000617616610195836136ff565b915061762182617412565b61019582019050919050565b7f3c70617468207374796c653d226f7061636974793a302e36303038323330323b60008201527f66696c6c3a236666666666663b66696c6c2d6f7061636974793a313b66696c6c60208201527f2d72756c653a6e6f6e7a65726f3b7374726f6b653a6e6f6e653b66696c74657260408201527f3a75726c282366696c74657235383337292220643d224d203133392e3830393160608201527f352c31392e3133343838312043203131372e39383233322c38362e303738363660808201527f382039362e3234393031352c3135332e30373439312037342e3436353430352c60a08201527f3232302e303431313320632031332e32373639352c31322e343339303620333060c08201527f2e3038303638352c32312e31393436312034382e3138373439352c32332e363260e08201527f352032312e38313130382c2d36362e39323737372034332e36313230362c2d316101008201527f33332e38353839372036352e33343337352c2d3230302e383132343939202d316101208201527f322e38363733332c2d31332e303437323132202d32392e35373131362c2d32326101408201527f2e323732343233202d34372e3632352c2d32352e3430363235206c202d302e336101608201527f313632332c302e393438363833202d302e32343632372c302e373338383137206101808201527f7a222069643d22706174683332313322202f3e000000000000000000000000006101a082015250565b60006178586101b3836136ff565b91506178638261762d565b6101b382019050919050565b7f3c706174682069643d2270617468333231352220643d224d203133392e38303960008201527f31352c31392e3133343838312043203131372e39383233322c38362e3037383660208201527f36382039362e3234393031352c3135332e30373439312037342e34363534303560408201527f2c3232302e303431313320632031332e32373639352c31322e3433393036203360608201527f302e3038303638352c32312e31393436312034382e3138373439352c32332e3660808201527f32352032312e38313130382c2d36362e39323737372034332e36313230362c2d60a08201527f3133332e38353839372036352e33343337352c2d3230302e383132343939202d60c08201527f31322e38363733332c2d31332e303437323132202d32392e35373131362c2d3260e08201527f322e323732343233202d34372e3632352c2d32352e3430363235206c202d302e6101008201527f33313632332c302e393438363833202d302e32343632372c302e3733383831376101208201527f207a22207374796c653d226f7061636974793a302e36303038323330323b66696101408201527f6c6c3a236666666666663b66696c6c2d6f7061636974793a313b66696c6c2d726101608201527f756c653a6e6f6e7a65726f3b7374726f6b653a6e6f6e653b66696c7465723a756101808201527f726c282366696c746572353833372922202f3e000000000000000000000000006101a082015250565b6000617a9a6101b3836136ff565b9150617aa58261786f565b6101b382019050919050565b7f3c616e696d6174655472616e73666f726d206174747269627574654e616d653d60008201527f227472616e73666f726d2220747970653d227363616c6522206b657954696d6560208201527f733d22303b302e353b31222076616c7565733d22313b312e313b31222064757260408201527f3d2231732220726570656174436f756e743d22696e646566696e697465222f3e606082015250565b6000617b596080836136ff565b9150617b6482617ab1565b608082019050919050565b6000617b7a826150cc565b9150617b8582615164565b9150617b90826151d6565b9150617b9b8261526e565b9150617ba682615487565b9150617bb182616ce0565b9150617bbc82614616565b9150617bc782616e86565b9150617bd28261702c565b9150617bdd826171d2565b9150617be8826173ed565b9150617bf382617608565b9150617bfe8261784a565b9150617c0982617a8c565b9150617c1482614616565b9150617c1f82614616565b9150617c2a82614616565b9150617c3582617b4c565b9150617c4082614616565b9150819050919050565b6000617c5582612bed565b91507fffffffffffffffffffffffffffffffffffffffffffffffffffffffffffffffff821415617c8857617c876135e2565b5b600182019050919050565b6000617c9e82612bed565b9150617ca983612bed565b925082617cb957617cb861366b565b5b828206905092915050565b7f4e487b7100000000000000000000000000000000000000000000000000000000600052603260045260246000fd5b6000617cfe82612bed565b91506000821415617d1257617d116135e2565b5b600182039050919050565b7f4845585f4c000000000000000000000000000000000000000000000000000000600082015250565b6000617d53600583612b3d565b9150617d5e82617d1d565b602082019050919050565b60006020820190508181036000830152617d8281617d46565b9050919050565b7f4552433732313a20617070726f766520746f2063616c6c657200000000000000600082015250565b6000617dbf601983612b3d565b9150617dca82617d89565b602082019050919050565b60006020820190508181036000830152617dee81617db2565b9050919050565b7f4552433732313a207472616e7366657220746f206e6f6e20455243373231526560008201527f63656976657220696d706c656d656e7465720000000000000000000000000000602082015250565b6000617e51603283612b3d565b9150617e5c82617df5565b604082019050919050565b60006020820190508181036000830152617e8081617e44565b9050919050565b7f537472696e67733a20686578206c656e67746820696e73756666696369656e74600082015250565b6000617ebd602083612b3d565b9150617ec882617e87565b602082019050919050565b60006020820190508181036000830152617eec81617eb0565b9050919050565b600082825260208201905092915050565b6000617f0f8261482c565b617f198185617ef3565b9350617f29818560208601612b4e565b617f3281612b81565b840191505092915050565b6000608082019050617f526000830187612c82565b617f5f6020830186612c82565b617f6c6040830185612f26565b8181036060830152617f7e8184617f04565b905095945050505050565b600081519050617f9881612aa3565b92915050565b600060208284031215617fb457617fb3612a6d565b5b6000617fc284828501617f89565b91505092915050565b7f4552433732313a206d696e7420746f20746865207a65726f2061646472657373600082015250565b6000618001602083612b3d565b915061800c82617fcb565b602082019050919050565b6000602082019050818103600083015261803081617ff4565b9050919050565b7f4552433732313a20746f6b656e20616c7265616479206d696e74656400000000600082015250565b600061806d601c83612b3d565b915061807882618037565b602082019050919050565b6000602082019050818103600083015261809c81618060565b905091905056fe4142434445464748494a4b4c4d4e4f505152535455565758595a6162636465666768696a6b6c6d6e6f707172737475767778797a303132333435363738392b2fa264697066735822122040a38f625bab1365d5b4d4ae6f65a9b99ccaa0748a161a29f7e99b6558d61e6064736f6c634300080b0033",
  "linkReferences": {},
  "deployedLinkReferences": {}
}