{
  "_format": "hh-sol-artifact-1",
  "contractName": "SwapContract",
  "sourceName": "contracts/SwapContract.sol",
  "abi": [
    {
      "inputs": [
        {
          "internalType": "address",
          "name": "_CGT_ADDRESS",
          "type": "address"
        },
        {
          "internalType": "address",
          "name": "_DGX_ADDRESS",
          "type": "address"
        }
      ],
      "stateMutability": "nonpayable",
      "type": "constructor"
    },
    {
      "anonymous": false,
      "inputs": [
        {
          "indexed": false,
          "internalType": "uint256",
          "name": "DGX_Amount",
          "type": "uint256"
        },
        {
          "indexed": false,
          "internalType": "address",
          "name": "account",
          "type": "address"
        }
      ],
      "name": "swappedTokens",
      "type": "event"
    },
    {
      "inputs": [],
      "name": "CGT_ADDRESS",
      "outputs": [
        {
          "internalType": "address",
          "name": "",
          "type": "address"
        }
      ],
      "stateMutability": "view",
      "type": "function"
    },
    {
      "inputs": [],
      "name": "DGX_ADDRESS",
      "outputs": [
        {
          "internalType": "address",
          "name": "",
          "type": "address"
        }
      ],
      "stateMutability": "view",
      "type": "function"
    },
    {
      "inputs": [],
      "name": "DGX_AmountBurnt",
      "outputs": [
        {
          "internalType": "uint256",
          "name": "",
          "type": "uint256"
        }
      ],
      "stateMutability": "view",
      "type": "function"
    },
    {
      "inputs": [
        {
          "internalType": "uint256",
          "name": "_amount",
          "type": "uint256"
        }
      ],
      "name": "swap",
      "outputs": [],
      "stateMutability": "nonpayable",
      "type": "function"
    }
  ],
  "bytecode": "0x60c060405234801561001057600080fd5b50604051610c48380380610c48833981810160405281019061003291906100bc565b8173ffffffffffffffffffffffffffffffffffffffff1660808173ffffffffffffffffffffffffffffffffffffffff1660601b815250508073ffffffffffffffffffffffffffffffffffffffff1660a08173ffffffffffffffffffffffffffffffffffffffff1660601b815250505050610141565b6000815190506100b68161012a565b92915050565b600080604083850312156100cf57600080fd5b60006100dd858286016100a7565b92505060206100ee858286016100a7565b9150509250929050565b60006101038261010a565b9050919050565b600073ffffffffffffffffffffffffffffffffffffffff82169050919050565b610133816100f8565b811461013e57600080fd5b50565b60805160601c60a05160601c610abb61018d6000396000818160ed01528181610112015281816102f401526103f801526000818160c90152818161020901526104a90152610abb6000f3fe608060405234801561001057600080fd5b506004361061004c5760003560e01c806304f6e3341461005157806331d207901461006f57806394b918de1461008d578063dd85c493146100a9575b600080fd5b6100596100c7565b6040516100669190610725565b60405180910390f35b6100776100eb565b6040516100849190610725565b60405180910390f35b6100a760048036038101906100a2919061064c565b61010f565b005b6100b16105b5565b6040516100be9190610829565b60405180910390f35b7f000000000000000000000000000000000000000000000000000000000000000081565b7f000000000000000000000000000000000000000000000000000000000000000081565b807f000000000000000000000000000000000000000000000000000000000000000073ffffffffffffffffffffffffffffffffffffffff166370a08231336040518263ffffffff1660e01b81526004016101699190610725565b60206040518083038186803b15801561018157600080fd5b505afa158015610195573d6000803e3d6000fd5b505050506040513d601f19601f820116820180604052508101906101b99190610675565b10156101fa576040517f08c379a00000000000000000000000000000000000000000000000000000000081526004016101f1906107c9565b60405180910390fd5b600a8161020791906108d4565b7f000000000000000000000000000000000000000000000000000000000000000073ffffffffffffffffffffffffffffffffffffffff166370a08231306040518263ffffffff1660e01b81526004016102609190610725565b60206040518083038186803b15801561027857600080fd5b505afa15801561028c573d6000803e3d6000fd5b505050506040513d601f19601f820116820180604052508101906102b09190610675565b10156102f1576040517f08c379a00000000000000000000000000000000000000000000000000000000081526004016102e8906107e9565b60405180910390fd5b807f000000000000000000000000000000000000000000000000000000000000000073ffffffffffffffffffffffffffffffffffffffff1663dd62ed3e33306040518363ffffffff1660e01b815260040161034d929190610740565b60206040518083038186803b15801561036557600080fd5b505afa158015610379573d6000803e3d6000fd5b505050506040513d601f19601f8201168201806040525081019061039d9190610675565b10156103de576040517f08c379a00000000000000000000000000000000000000000000000000000000081526004016103d590610809565b60405180910390fd5b806000808282546103ef919061087e565b925050819055507f000000000000000000000000000000000000000000000000000000000000000073ffffffffffffffffffffffffffffffffffffffff166323b872dd336000846040518463ffffffff1660e01b815260040161045493929190610769565b602060405180830381600087803b15801561046e57600080fd5b505af1158015610482573d6000803e3d6000fd5b505050506040513d601f19601f820116820180604052508101906104a69190610623565b507f000000000000000000000000000000000000000000000000000000000000000073ffffffffffffffffffffffffffffffffffffffff1663a9059cbb336104f284633b9aca006105bb565b600a856104ff91906108d4565b610509919061087e565b6040518363ffffffff1660e01b81526004016105269291906107a0565b602060405180830381600087803b15801561054057600080fd5b505af1158015610554573d6000803e3d6000fd5b505050506040513d601f19601f820116820180604052508101906105789190610623565b507f3bb3729ca9fe8a332761e09006f9bfc3d8d361ddcbd3fa81ca531613f906efff81336040516105aa929190610844565b60405180910390a150565b60005481565b6000600582846105cb919061094d565b106105d957600190506105de565b600090505b92915050565b6000815190506105f381610a57565b92915050565b60008135905061060881610a6e565b92915050565b60008151905061061d81610a6e565b92915050565b60006020828403121561063557600080fd5b6000610643848285016105e4565b91505092915050565b60006020828403121561065e57600080fd5b600061066c848285016105f9565b91505092915050565b60006020828403121561068757600080fd5b60006106958482850161060e565b91505092915050565b6106a781610905565b82525050565b60006106ba60188361086d565b91506106c5826109dc565b602082019050919050565b60006106dd601c8361086d565b91506106e882610a05565b602082019050919050565b6000610700601c8361086d565b915061070b82610a2e565b602082019050919050565b61071f81610943565b82525050565b600060208201905061073a600083018461069e565b92915050565b6000604082019050610755600083018561069e565b610762602083018461069e565b9392505050565b600060608201905061077e600083018661069e565b61078b602083018561069e565b6107986040830184610716565b949350505050565b60006040820190506107b5600083018561069e565b6107c26020830184610716565b9392505050565b600060208201905081810360008301526107e2816106ad565b9050919050565b60006020820190508181036000830152610802816106d0565b9050919050565b60006020820190508181036000830152610822816106f3565b9050919050565b600060208201905061083e6000830184610716565b92915050565b60006040820190506108596000830185610716565b610866602083018461069e565b9392505050565b600082825260208201905092915050565b600061088982610943565b915061089483610943565b9250827fffffffffffffffffffffffffffffffffffffffffffffffffffffffffffffffff038211156108c9576108c861097e565b5b828201905092915050565b60006108df82610943565b91506108ea83610943565b9250826108fa576108f96109ad565b5b828204905092915050565b600061091082610923565b9050919050565b60008115159050919050565b600073ffffffffffffffffffffffffffffffffffffffff82169050919050565b6000819050919050565b600061095882610943565b915061096383610943565b925082610973576109726109ad565b5b828206905092915050565b7f4e487b7100000000000000000000000000000000000000000000000000000000600052601160045260246000fd5b7f4e487b7100000000000000000000000000000000000000000000000000000000600052601260045260246000fd5b7f496e73756666696369656e74204447582062616c616e63650000000000000000600082015250565b7f496e73756666696369656e742043475420696e20636f6e747261637400000000600082015250565b7f416d6f756e7420657863656564732044475820616c6c6f77616e636500000000600082015250565b610a6081610917565b8114610a6b57600080fd5b50565b610a7781610943565b8114610a8257600080fd5b5056fea2646970667358221220fa1e7c761b9689fce2e2f3f172db6fde1978ca74ccbc9681c5045891d8c750ba64736f6c63430008040033",
  "linkReferences": {},
  "deployedLinkReferences": {}
}