{
  "_format": "hh-sol-artifact-1",
  "contractName": "SteadyDaoToken",
  "sourceName": "contracts/SteadyDaoToken.sol",
  "abi": [
    {
      "inputs": [
        {
          "internalType": "address",
          "name": "ufoTokenAddress",
          "type": "address"
        }
      ],
      "stateMutability": "nonpayable",
      "type": "constructor"
    },
    {
      "anonymous": false,
      "inputs": [
        {
          "indexed": true,
          "internalType": "address",
          "name": "owner",
          "type": "address"
        },
        {
          "indexed": true,
          "internalType": "address",
          "name": "spender",
          "type": "address"
        },
        {
          "indexed": false,
          "internalType": "uint256",
          "name": "value",
          "type": "uint256"
        }
      ],
      "name": "Approval",
      "type": "event"
    },
    {
      "anonymous": false,
      "inputs": [
        {
          "indexed": true,
          "internalType": "address",
          "name": "previousOwner",
          "type": "address"
        },
        {
          "indexed": true,
          "internalType": "address",
          "name": "newOwner",
          "type": "address"
        }
      ],
      "name": "OwnershipTransferred",
      "type": "event"
    },
    {
      "anonymous": false,
      "inputs": [
        {
          "indexed": true,
          "internalType": "address",
          "name": "from",
          "type": "address"
        },
        {
          "indexed": true,
          "internalType": "address",
          "name": "to",
          "type": "address"
        },
        {
          "indexed": false,
          "internalType": "uint256",
          "name": "value",
          "type": "uint256"
        }
      ],
      "name": "Transfer",
      "type": "event"
    },
    {
      "inputs": [
        {
          "internalType": "address",
          "name": "owner",
          "type": "address"
        },
        {
          "internalType": "address",
          "name": "spender",
          "type": "address"
        }
      ],
      "name": "allowance",
      "outputs": [
        {
          "internalType": "uint256",
          "name": "",
          "type": "uint256"
        }
      ],
      "stateMutability": "view",
      "type": "function"
    },
    {
      "inputs": [
        {
          "internalType": "address",
          "name": "spender",
          "type": "address"
        },
        {
          "internalType": "uint256",
          "name": "amount",
          "type": "uint256"
        }
      ],
      "name": "approve",
      "outputs": [
        {
          "internalType": "bool",
          "name": "",
          "type": "bool"
        }
      ],
      "stateMutability": "nonpayable",
      "type": "function"
    },
    {
      "inputs": [
        {
          "internalType": "address",
          "name": "account",
          "type": "address"
        }
      ],
      "name": "balanceOf",
      "outputs": [
        {
          "internalType": "uint256",
          "name": "",
          "type": "uint256"
        }
      ],
      "stateMutability": "view",
      "type": "function"
    },
    {
      "inputs": [],
      "name": "decimals",
      "outputs": [
        {
          "internalType": "uint8",
          "name": "",
          "type": "uint8"
        }
      ],
      "stateMutability": "view",
      "type": "function"
    },
    {
      "inputs": [
        {
          "internalType": "address",
          "name": "spender",
          "type": "address"
        },
        {
          "internalType": "uint256",
          "name": "subtractedValue",
          "type": "uint256"
        }
      ],
      "name": "decreaseAllowance",
      "outputs": [
        {
          "internalType": "bool",
          "name": "",
          "type": "bool"
        }
      ],
      "stateMutability": "nonpayable",
      "type": "function"
    },
    {
      "inputs": [
        {
          "internalType": "address",
          "name": "spender",
          "type": "address"
        },
        {
          "internalType": "uint256",
          "name": "addedValue",
          "type": "uint256"
        }
      ],
      "name": "increaseAllowance",
      "outputs": [
        {
          "internalType": "bool",
          "name": "",
          "type": "bool"
        }
      ],
      "stateMutability": "nonpayable",
      "type": "function"
    },
    {
      "inputs": [
        {
          "internalType": "address",
          "name": "account",
          "type": "address"
        },
        {
          "internalType": "uint256",
          "name": "amount",
          "type": "uint256"
        }
      ],
      "name": "mint",
      "outputs": [],
      "stateMutability": "nonpayable",
      "type": "function"
    },
    {
      "inputs": [],
      "name": "name",
      "outputs": [
        {
          "internalType": "string",
          "name": "",
          "type": "string"
        }
      ],
      "stateMutability": "view",
      "type": "function"
    },
    {
      "inputs": [],
      "name": "owner",
      "outputs": [
        {
          "internalType": "address",
          "name": "",
          "type": "address"
        }
      ],
      "stateMutability": "view",
      "type": "function"
    },
    {
      "inputs": [],
      "name": "renounceOwnership",
      "outputs": [],
      "stateMutability": "nonpayable",
      "type": "function"
    },
    {
      "inputs": [],
      "name": "s_ufoToken",
      "outputs": [
        {
          "internalType": "contract IERC20",
          "name": "",
          "type": "address"
        }
      ],
      "stateMutability": "view",
      "type": "function"
    },
    {
      "inputs": [
        {
          "internalType": "uint256",
          "name": "amount",
          "type": "uint256"
        }
      ],
      "name": "swapSDCForSDT",
      "outputs": [],
      "stateMutability": "nonpayable",
      "type": "function"
    },
    {
      "inputs": [
        {
          "internalType": "uint256",
          "name": "amount",
          "type": "uint256"
        }
      ],
      "name": "swapSDTForSDC",
      "outputs": [],
      "stateMutability": "nonpayable",
      "type": "function"
    },
    {
      "inputs": [],
      "name": "symbol",
      "outputs": [
        {
          "internalType": "string",
          "name": "",
          "type": "string"
        }
      ],
      "stateMutability": "view",
      "type": "function"
    },
    {
      "inputs": [],
      "name": "totalSupply",
      "outputs": [
        {
          "internalType": "uint256",
          "name": "",
          "type": "uint256"
        }
      ],
      "stateMutability": "view",
      "type": "function"
    },
    {
      "inputs": [
        {
          "internalType": "address",
          "name": "recipient",
          "type": "address"
        },
        {
          "internalType": "uint256",
          "name": "amount",
          "type": "uint256"
        }
      ],
      "name": "transfer",
      "outputs": [
        {
          "internalType": "bool",
          "name": "",
          "type": "bool"
        }
      ],
      "stateMutability": "nonpayable",
      "type": "function"
    },
    {
      "inputs": [
        {
          "internalType": "address",
          "name": "sender",
          "type": "address"
        },
        {
          "internalType": "address",
          "name": "recipient",
          "type": "address"
        },
        {
          "internalType": "uint256",
          "name": "amount",
          "type": "uint256"
        }
      ],
      "name": "transferFrom",
      "outputs": [
        {
          "internalType": "bool",
          "name": "",
          "type": "bool"
        }
      ],
      "stateMutability": "nonpayable",
      "type": "function"
    },
    {
      "inputs": [
        {
          "internalType": "address",
          "name": "newOwner",
          "type": "address"
        }
      ],
      "name": "transferOwnership",
      "outputs": [],
      "stateMutability": "nonpayable",
      "type": "function"
    }
  ],
  "bytecode": "0x60a06040523480156200001157600080fd5b50604051620024a3380380620024a383398181016040528101906200003791906200031a565b6040518060400160405280600e81526020017f53746561647944616f546f6b656e0000000000000000000000000000000000008152506040518060400160405280600381526020017f53445400000000000000000000000000000000000000000000000000000000008152508160039080519060200190620000bb92919062000200565b508060049080519060200190620000d492919062000200565b505050620000f7620000eb6200013260201b60201c565b6200013a60201b60201c565b8073ffffffffffffffffffffffffffffffffffffffff1660808173ffffffffffffffffffffffffffffffffffffffff168152505050620003b1565b600033905090565b6000600560009054906101000a900473ffffffffffffffffffffffffffffffffffffffff16905081600560006101000a81548173ffffffffffffffffffffffffffffffffffffffff021916908373ffffffffffffffffffffffffffffffffffffffff1602179055508173ffffffffffffffffffffffffffffffffffffffff168173ffffffffffffffffffffffffffffffffffffffff167f8be0079c531659141344cd1fd0a4f28419497f9722a3daafe3b4186f6b6457e060405160405180910390a35050565b8280546200020e906200037b565b90600052602060002090601f0160209004810192826200023257600085556200027e565b82601f106200024d57805160ff19168380011785556200027e565b828001600101855582156200027e579182015b828111156200027d57825182559160200191906001019062000260565b5b5090506200028d919062000291565b5090565b5b80821115620002ac57600081600090555060010162000292565b5090565b600080fd5b600073ffffffffffffffffffffffffffffffffffffffff82169050919050565b6000620002e282620002b5565b9050919050565b620002f481620002d5565b81146200030057600080fd5b50565b6000815190506200031481620002e9565b92915050565b600060208284031215620003335762000332620002b0565b5b6000620003438482850162000303565b91505092915050565b7f4e487b7100000000000000000000000000000000000000000000000000000000600052602260045260246000fd5b600060028204905060018216806200039457607f821691505b60208210811415620003ab57620003aa6200034c565b5b50919050565b6080516120c8620003db6000396000818161075c015281816107b40152610b7001526120c86000f3fe608060405234801561001057600080fd5b50600436106101165760003560e01c806377c59524116100a2578063a457c2d711610071578063a457c2d7146102d1578063a9059cbb14610301578063dd62ed3e14610331578063f2fde38b14610361578063f985d7a81461037d57610116565b806377c595241461025b5780638da5cb5b14610279578063917b3d701461029757806395d89b41146102b357610116565b8063313ce567116100e9578063313ce567146101b757806339509351146101d557806340c10f191461020557806370a0823114610221578063715018a61461025157610116565b806306fdde031461011b578063095ea7b31461013957806318160ddd1461016957806323b872dd14610187575b600080fd5b610123610399565b6040516101309190611510565b60405180910390f35b610153600480360381019061014e91906115cb565b61042b565b6040516101609190611626565b60405180910390f35b610171610449565b60405161017e9190611650565b60405180910390f35b6101a1600480360381019061019c919061166b565b610453565b6040516101ae9190611626565b60405180910390f35b6101bf61054b565b6040516101cc91906116da565b60405180910390f35b6101ef60048036038101906101ea91906115cb565b610554565b6040516101fc9190611626565b60405180910390f35b61021f600480360381019061021a91906115cb565b610600565b005b61023b600480360381019061023691906116f5565b61068a565b6040516102489190611650565b60405180910390f35b6102596106d2565b005b61026361075a565b6040516102709190611781565b60405180910390f35b61028161077e565b60405161028e91906117ab565b60405180910390f35b6102b160048036038101906102ac91906117c6565b6107a8565b005b6102bb610854565b6040516102c89190611510565b60405180910390f35b6102eb60048036038101906102e691906115cb565b6108e6565b6040516102f89190611626565b60405180910390f35b61031b600480360381019061031691906115cb565b6109d1565b6040516103289190611626565b60405180910390f35b61034b600480360381019061034691906117f3565b6109ef565b6040516103589190611650565b60405180910390f35b61037b600480360381019061037691906116f5565b610a76565b005b610397600480360381019061039291906117c6565b610b6e565b005b6060600380546103a890611862565b80601f01602080910402602001604051908101604052809291908181526020018280546103d490611862565b80156104215780601f106103f657610100808354040283529160200191610421565b820191906000526020600020905b81548152906001019060200180831161040457829003601f168201915b5050505050905090565b600061043f610438610c1c565b8484610c24565b6001905092915050565b6000600254905090565b6000610460848484610def565b6000600160008673ffffffffffffffffffffffffffffffffffffffff1673ffffffffffffffffffffffffffffffffffffffff16815260200190815260200160002060006104ab610c1c565b73ffffffffffffffffffffffffffffffffffffffff1673ffffffffffffffffffffffffffffffffffffffff1681526020019081526020016000205490508281101561052b576040517f08c379a000000000000000000000000000000000000000000000000000000000815260040161052290611906565b60405180910390fd5b61053f85610537610c1c565b858403610c24565b60019150509392505050565b6000600c905090565b60006105f6610561610c1c565b84846001600061056f610c1c565b73ffffffffffffffffffffffffffffffffffffffff1673ffffffffffffffffffffffffffffffffffffffff16815260200190815260200160002060008873ffffffffffffffffffffffffffffffffffffffff1673ffffffffffffffffffffffffffffffffffffffff168152602001908152602001600020546105f19190611955565b610c24565b6001905092915050565b610608610c1c565b73ffffffffffffffffffffffffffffffffffffffff1661062661077e565b73ffffffffffffffffffffffffffffffffffffffff161461067c576040517f08c379a0000000000000000000000000000000000000000000000000000000008152600401610673906119f7565b60405180910390fd5b6106868282611070565b5050565b60008060008373ffffffffffffffffffffffffffffffffffffffff1673ffffffffffffffffffffffffffffffffffffffff168152602001908152602001600020549050919050565b6106da610c1c565b73ffffffffffffffffffffffffffffffffffffffff166106f861077e565b73ffffffffffffffffffffffffffffffffffffffff161461074e576040517f08c379a0000000000000000000000000000000000000000000000000000000008152600401610745906119f7565b60405180910390fd5b61075860006111d0565b565b7f000000000000000000000000000000000000000000000000000000000000000081565b6000600560009054906101000a900473ffffffffffffffffffffffffffffffffffffffff16905090565b6107b23382611296565b7f000000000000000000000000000000000000000000000000000000000000000073ffffffffffffffffffffffffffffffffffffffff1663a9059cbb33836040518363ffffffff1660e01b815260040161080d929190611a17565b6020604051808303816000875af115801561082c573d6000803e3d6000fd5b505050506040513d601f19601f820116820180604052508101906108509190611a6c565b5050565b60606004805461086390611862565b80601f016020809104026020016040519081016040528092919081815260200182805461088f90611862565b80156108dc5780601f106108b1576101008083540402835291602001916108dc565b820191906000526020600020905b8154815290600101906020018083116108bf57829003601f168201915b5050505050905090565b600080600160006108f5610c1c565b73ffffffffffffffffffffffffffffffffffffffff1673ffffffffffffffffffffffffffffffffffffffff16815260200190815260200160002060008573ffffffffffffffffffffffffffffffffffffffff1673ffffffffffffffffffffffffffffffffffffffff168152602001908152602001600020549050828110156109b2576040517f08c379a00000000000000000000000000000000000000000000000000000000081526004016109a990611b0b565b60405180910390fd5b6109c66109bd610c1c565b85858403610c24565b600191505092915050565b60006109e56109de610c1c565b8484610def565b6001905092915050565b6000600160008473ffffffffffffffffffffffffffffffffffffffff1673ffffffffffffffffffffffffffffffffffffffff16815260200190815260200160002060008373ffffffffffffffffffffffffffffffffffffffff1673ffffffffffffffffffffffffffffffffffffffff16815260200190815260200160002054905092915050565b610a7e610c1c565b73ffffffffffffffffffffffffffffffffffffffff16610a9c61077e565b73ffffffffffffffffffffffffffffffffffffffff1614610af2576040517f08c379a0000000000000000000000000000000000000000000000000000000008152600401610ae9906119f7565b60405180910390fd5b600073ffffffffffffffffffffffffffffffffffffffff168173ffffffffffffffffffffffffffffffffffffffff161415610b62576040517f08c379a0000000000000000000000000000000000000000000000000000000008152600401610b5990611b9d565b60405180910390fd5b610b6b816111d0565b50565b7f000000000000000000000000000000000000000000000000000000000000000073ffffffffffffffffffffffffffffffffffffffff166323b872dd3330846040518463ffffffff1660e01b8152600401610bcb93929190611bbd565b6020604051808303816000875af1158015610bea573d6000803e3d6000fd5b505050506040513d601f19601f82011682018060405250810190610c0e9190611a6c565b50610c193382611070565b50565b600033905090565b600073ffffffffffffffffffffffffffffffffffffffff168373ffffffffffffffffffffffffffffffffffffffff161415610c94576040517f08c379a0000000000000000000000000000000000000000000000000000000008152600401610c8b90611c66565b60405180910390fd5b600073ffffffffffffffffffffffffffffffffffffffff168273ffffffffffffffffffffffffffffffffffffffff161415610d04576040517f08c379a0000000000000000000000000000000000000000000000000000000008152600401610cfb90611cf8565b60405180910390fd5b80600160008573ffffffffffffffffffffffffffffffffffffffff1673ffffffffffffffffffffffffffffffffffffffff16815260200190815260200160002060008473ffffffffffffffffffffffffffffffffffffffff1673ffffffffffffffffffffffffffffffffffffffff168152602001908152602001600020819055508173ffffffffffffffffffffffffffffffffffffffff168373ffffffffffffffffffffffffffffffffffffffff167f8c5be1e5ebec7d5bd14f71427d1e84f3dd0314c0f7b2291e5b200ac8c7c3b92583604051610de29190611650565b60405180910390a3505050565b600073ffffffffffffffffffffffffffffffffffffffff168373ffffffffffffffffffffffffffffffffffffffff161415610e5f576040517f08c379a0000000000000000000000000000000000000000000000000000000008152600401610e5690611d8a565b60405180910390fd5b600073ffffffffffffffffffffffffffffffffffffffff168273ffffffffffffffffffffffffffffffffffffffff161415610ecf576040517f08c379a0000000000000000000000000000000000000000000000000000000008152600401610ec690611e1c565b60405180910390fd5b610eda83838361146d565b60008060008573ffffffffffffffffffffffffffffffffffffffff1673ffffffffffffffffffffffffffffffffffffffff16815260200190815260200160002054905081811015610f60576040517f08c379a0000000000000000000000000000000000000000000000000000000008152600401610f5790611eae565b60405180910390fd5b8181036000808673ffffffffffffffffffffffffffffffffffffffff1673ffffffffffffffffffffffffffffffffffffffff16815260200190815260200160002081905550816000808573ffffffffffffffffffffffffffffffffffffffff1673ffffffffffffffffffffffffffffffffffffffff1681526020019081526020016000206000828254610ff39190611955565b925050819055508273ffffffffffffffffffffffffffffffffffffffff168473ffffffffffffffffffffffffffffffffffffffff167fddf252ad1be2c89b69c2b068fc378daa952ba7f163c4a11628f55a4df523b3ef846040516110579190611650565b60405180910390a361106a848484611472565b50505050565b600073ffffffffffffffffffffffffffffffffffffffff168273ffffffffffffffffffffffffffffffffffffffff1614156110e0576040517f08c379a00000000000000000000000000000000000000000000000000000000081526004016110d790611f1a565b60405180910390fd5b6110ec6000838361146d565b80600260008282546110fe9190611955565b92505081905550806000808473ffffffffffffffffffffffffffffffffffffffff1673ffffffffffffffffffffffffffffffffffffffff16815260200190815260200160002060008282546111539190611955565b925050819055508173ffffffffffffffffffffffffffffffffffffffff16600073ffffffffffffffffffffffffffffffffffffffff167fddf252ad1be2c89b69c2b068fc378daa952ba7f163c4a11628f55a4df523b3ef836040516111b89190611650565b60405180910390a36111cc60008383611472565b5050565b6000600560009054906101000a900473ffffffffffffffffffffffffffffffffffffffff16905081600560006101000a81548173ffffffffffffffffffffffffffffffffffffffff021916908373ffffffffffffffffffffffffffffffffffffffff1602179055508173ffffffffffffffffffffffffffffffffffffffff168173ffffffffffffffffffffffffffffffffffffffff167f8be0079c531659141344cd1fd0a4f28419497f9722a3daafe3b4186f6b6457e060405160405180910390a35050565b600073ffffffffffffffffffffffffffffffffffffffff168273ffffffffffffffffffffffffffffffffffffffff161415611306576040517f08c379a00000000000000000000000000000000000000000000000000000000081526004016112fd90611fac565b60405180910390fd5b6113128260008361146d565b60008060008473ffffffffffffffffffffffffffffffffffffffff1673ffffffffffffffffffffffffffffffffffffffff16815260200190815260200160002054905081811015611398576040517f08c379a000000000000000000000000000000000000000000000000000000000815260040161138f9061203e565b60405180910390fd5b8181036000808573ffffffffffffffffffffffffffffffffffffffff1673ffffffffffffffffffffffffffffffffffffffff1681526020019081526020016000208190555081600260008282546113ef919061205e565b92505081905550600073ffffffffffffffffffffffffffffffffffffffff168373ffffffffffffffffffffffffffffffffffffffff167fddf252ad1be2c89b69c2b068fc378daa952ba7f163c4a11628f55a4df523b3ef846040516114549190611650565b60405180910390a361146883600084611472565b505050565b505050565b505050565b600081519050919050565b600082825260208201905092915050565b60005b838110156114b1578082015181840152602081019050611496565b838111156114c0576000848401525b50505050565b6000601f19601f8301169050919050565b60006114e282611477565b6114ec8185611482565b93506114fc818560208601611493565b611505816114c6565b840191505092915050565b6000602082019050818103600083015261152a81846114d7565b905092915050565b600080fd5b600073ffffffffffffffffffffffffffffffffffffffff82169050919050565b600061156282611537565b9050919050565b61157281611557565b811461157d57600080fd5b50565b60008135905061158f81611569565b92915050565b6000819050919050565b6115a881611595565b81146115b357600080fd5b50565b6000813590506115c58161159f565b92915050565b600080604083850312156115e2576115e1611532565b5b60006115f085828601611580565b9250506020611601858286016115b6565b9150509250929050565b60008115159050919050565b6116208161160b565b82525050565b600060208201905061163b6000830184611617565b92915050565b61164a81611595565b82525050565b60006020820190506116656000830184611641565b92915050565b60008060006060848603121561168457611683611532565b5b600061169286828701611580565b93505060206116a386828701611580565b92505060406116b4868287016115b6565b9150509250925092565b600060ff82169050919050565b6116d4816116be565b82525050565b60006020820190506116ef60008301846116cb565b92915050565b60006020828403121561170b5761170a611532565b5b600061171984828501611580565b91505092915050565b6000819050919050565b600061174761174261173d84611537565b611722565b611537565b9050919050565b60006117598261172c565b9050919050565b600061176b8261174e565b9050919050565b61177b81611760565b82525050565b60006020820190506117966000830184611772565b92915050565b6117a581611557565b82525050565b60006020820190506117c0600083018461179c565b92915050565b6000602082840312156117dc576117db611532565b5b60006117ea848285016115b6565b91505092915050565b6000806040838503121561180a57611809611532565b5b600061181885828601611580565b925050602061182985828601611580565b9150509250929050565b7f4e487b7100000000000000000000000000000000000000000000000000000000600052602260045260246000fd5b6000600282049050600182168061187a57607f821691505b6020821081141561188e5761188d611833565b5b50919050565b7f45524332303a207472616e7366657220616d6f756e742065786365656473206160008201527f6c6c6f77616e6365000000000000000000000000000000000000000000000000602082015250565b60006118f0602883611482565b91506118fb82611894565b604082019050919050565b6000602082019050818103600083015261191f816118e3565b9050919050565b7f4e487b7100000000000000000000000000000000000000000000000000000000600052601160045260246000fd5b600061196082611595565b915061196b83611595565b9250827fffffffffffffffffffffffffffffffffffffffffffffffffffffffffffffffff038211156119a05761199f611926565b5b828201905092915050565b7f4f776e61626c653a2063616c6c6572206973206e6f7420746865206f776e6572600082015250565b60006119e1602083611482565b91506119ec826119ab565b602082019050919050565b60006020820190508181036000830152611a10816119d4565b9050919050565b6000604082019050611a2c600083018561179c565b611a396020830184611641565b9392505050565b611a498161160b565b8114611a5457600080fd5b50565b600081519050611a6681611a40565b92915050565b600060208284031215611a8257611a81611532565b5b6000611a9084828501611a57565b91505092915050565b7f45524332303a2064656372656173656420616c6c6f77616e63652062656c6f7760008201527f207a65726f000000000000000000000000000000000000000000000000000000602082015250565b6000611af5602583611482565b9150611b0082611a99565b604082019050919050565b60006020820190508181036000830152611b2481611ae8565b9050919050565b7f4f776e61626c653a206e6577206f776e657220697320746865207a65726f206160008201527f6464726573730000000000000000000000000000000000000000000000000000602082015250565b6000611b87602683611482565b9150611b9282611b2b565b604082019050919050565b60006020820190508181036000830152611bb681611b7a565b9050919050565b6000606082019050611bd2600083018661179c565b611bdf602083018561179c565b611bec6040830184611641565b949350505050565b7f45524332303a20617070726f76652066726f6d20746865207a65726f2061646460008201527f7265737300000000000000000000000000000000000000000000000000000000602082015250565b6000611c50602483611482565b9150611c5b82611bf4565b604082019050919050565b60006020820190508181036000830152611c7f81611c43565b9050919050565b7f45524332303a20617070726f766520746f20746865207a65726f20616464726560008201527f7373000000000000000000000000000000000000000000000000000000000000602082015250565b6000611ce2602283611482565b9150611ced82611c86565b604082019050919050565b60006020820190508181036000830152611d1181611cd5565b9050919050565b7f45524332303a207472616e736665722066726f6d20746865207a65726f20616460008201527f6472657373000000000000000000000000000000000000000000000000000000602082015250565b6000611d74602583611482565b9150611d7f82611d18565b604082019050919050565b60006020820190508181036000830152611da381611d67565b9050919050565b7f45524332303a207472616e7366657220746f20746865207a65726f206164647260008201527f6573730000000000000000000000000000000000000000000000000000000000602082015250565b6000611e06602383611482565b9150611e1182611daa565b604082019050919050565b60006020820190508181036000830152611e3581611df9565b9050919050565b7f45524332303a207472616e7366657220616d6f756e742065786365656473206260008201527f616c616e63650000000000000000000000000000000000000000000000000000602082015250565b6000611e98602683611482565b9150611ea382611e3c565b604082019050919050565b60006020820190508181036000830152611ec781611e8b565b9050919050565b7f45524332303a206d696e7420746f20746865207a65726f206164647265737300600082015250565b6000611f04601f83611482565b9150611f0f82611ece565b602082019050919050565b60006020820190508181036000830152611f3381611ef7565b9050919050565b7f45524332303a206275726e2066726f6d20746865207a65726f2061646472657360008201527f7300000000000000000000000000000000000000000000000000000000000000602082015250565b6000611f96602183611482565b9150611fa182611f3a565b604082019050919050565b60006020820190508181036000830152611fc581611f89565b9050919050565b7f45524332303a206275726e20616d6f756e7420657863656564732062616c616e60008201527f6365000000000000000000000000000000000000000000000000000000000000602082015250565b6000612028602283611482565b915061203382611fcc565b604082019050919050565b600060208201905081810360008301526120578161201b565b9050919050565b600061206982611595565b915061207483611595565b92508282101561208757612086611926565b5b82820390509291505056fea26469706673582212201b8ce0e62be92efdc4bbf49b807e5f4ee719767210857722750728bc5d5903e764736f6c634300080b0033",
  "linkReferences": {},
  "deployedLinkReferences": {}
}